:020000040800F2
:100000008806002001010008090100080B01000812
:100010000D0100080F010008110100080000000098
:1000200000000000000000000000000013010008B4
:10003000150100080000000017010008E51F000876
:100040001B0100081B0100081B0100081B01000820
:100050001B0100081B0100081B0100081B01000810
:100060001B0100081B0100081B0100081B01000800
:100070001B0100081B0100081B0100081B010008F0
:100080001B0100081B0100081B0100081B010008E0
:100090001B0100081B0100081B0100081B010008D0
:1000A0001B0100081B0100081B0100081B010008C0
:1000B0001B0100081B0100081B0100081B010008B0
:1000C0001B0100081B0100081B0100081B010008A0
:1000D0001B010008FD2500081B0100081B0100088A
:1000E0001B0100081B0100081B010008DFF80CD0F1
:1000F00000F00AFD00480047554900088806002026
:100100000648804706480047FEE7FEE7FEE7FEE7B1
:10011000FEE7FEE7FEE7FEE7FEE7FEE7F51F000865
:10012000ED000008F0B480EA0102D40F4200B2EB07
:10013000410F02D20246084611464A0042D0C30D82
:10014000DDB2C1F3C752AD1A202D35DAC1F3160165
:1001500041F4000204B15242C5F1200602FA06F150
:100160002A411044B3EBD05F23D0C4B1012DA0EBE2
:10017000C35009DCF0BC4FF0004202EAC352DBB2CC
:1001800000F5000000F0D9BB400000F1807000EBEA
:10019000C350A0F1807040EAD170490009E04908DD
:1001A00041EAC071A0EBC35000F50000400800EB2D
:1001B000C350F0BC00F0B8BB6142012202EB410128
:1001C000001BF6E7F0BC704781F00041AAE780F021
:1001D0000040A7E780EA010210B502F000434000AA
:1001E00022D04A001FD0010E01EB1261C0F356006D
:1001F000C2F3560240F4000042F40002A0FB0220C9
:1002000000047F39140400D0401C50EA124001D48D
:100210004000491EC2B20C0604EBD010401C40083E
:10022000802A02D003E0002010BD20F00100002948
:1002300000DA0020184310BD30B480EA010202F059
:10024000004530F0004221F0004013D090B1C30DC2
:10025000D40DC2F31601C0F31600E41A41F40001F4
:1002600040F400027D34914201D3641C00E0490057
:10027000002C02DA30BC002070474FF4000000234D
:10028000914201D3891A034340084FEA4101F7D153
:1002900051B1914202D14FF0004105E002D24FF03E
:1002A000010101E06FF0010103EBC450284430BCB0
:1002B00000F03ABB2DE9FE4F804681EA0300C00FF3
:1002C0000C46009021F0004123F00045B8EB0200FD
:1002D000A94105D24046214690461C460B4602469F
:1002E00023F00040104347D0270DC7F30A00C3F3A3
:1002F0000A510290401A019040286BDAC3F31300B0
:1003000040F4801B0098924620B10023D2EB030AF0
:1003100063EB0B0B01985946C0F14002504600F0C8
:1003200084FA06460D4650465946019A00F09CFA5A
:1003300010EB08006141002487EA115284EAE77358
:100340001A4340D0009A62B3019A012A4FEA075239
:1003500015DC001B61EB02014FF0004202EA07527C
:10036000CDE90042001C41F5801132462B4600F0D9
:1003700021FB03B0BDE8F08F40462146F9E7001BA2
:1003800061EB0201001C41F5801300185B4120184D
:10039000A2F5001747EB030140EAD570B6196D418D
:1003A00011E06D084FEA360645EAC0754FEA07527C
:1003B000001B61EB0201001C41F5801149084FEA66
:1003C00030000019514132462B4603B0BDE8F04FD2
:1003D00000F0E1BA0098012240000023D0EB0202B5
:1003E00063EBE073009821464FEAE074B8EB00003D
:1003F00061EB0401E9E783F000435BE781F0004132
:1004000058E72DE9FE4F81EA030404F0004421F08F
:10041000004100944FF0000B23F0004350EA010428
:100420005ED052EA03045BD0C3F30A54C1F30A5509
:100430002C44A4F2F3340194A0FB0254C1F3130141
:1004400041F48011C3F3130343F4801301FB02440E
:1004500000FB034E840A970A44EA815447EA835713
:10046000A4FB076802958D0A05FB07854FEA932CCC
:1004700004FB0C542705029D4FEA065847EA16373D
:10048000B5EB08056EEB070C870E920E47EA811755
:1004900042EA8312A7FB0201B6EB0B0164EB0004F6
:1004A0002B0D43EA0C335E1844EB1C50DA465146E0
:1004B000E7FB0201C5F313044FEA0B3343EA14537D
:1004C0004FEA0432019C43EA0603A4F10C040294AF
:1004D000009CCDE900B400F06DFA03B0BDE8F08FE8
:1004E00000200146F9E72DE9F04D81EA030404F00C
:1004F000004B21F0004514464FF0000A23F0004164
:1005000050EA050220D054EA01021DD0C5F30A5773
:100510000246C5F31303C1F31300C1F30A5640F4B6
:10052000801543F48013A7EB0608101BD64608F28B
:10053000FD3873EB050002D308F1010801E09218C1
:100540005B41B8F1000F03DA00200146BDE8F08DF1
:1005500000204FF48011064684460EE0171B73EB13
:10056000050705D3121B63EB050306434CEA010C98
:1005700049084FEA300092185B4150EA0107EDD17B
:1005800052EA030012D082EA040083EA050108431C
:1005900005D0101BAB4106D20122002306E0002249
:1005A0004FF0004302E06FF0010253101AEB060017
:1005B0004CEB085110EB0A0041EB0B01BDE8F04D8C
:1005C00000F0E9B9C10F80EAE0700844CA07962339
:1005D000002100F0B2B996230022114600F0ADB917
:1005E0000EB5C10F80EAE0700844CA07002140F24E
:1005F00033438DE80E000A460B4600F0DBF903B0EA
:1006000000BD0EB540F2334102910021CDE9001149
:100610000A460B4600F0CEF903B000BD20F00040C2
:10062000C10DC0F3160040F400007F2901DA00205C
:100630007047962903DCC1F19601C840704796398E
:100640008840704770B5C1F30A5201F0004500249C
:10065000C1F3130140F2FF3341F480119A4201DAF1
:10066000002070BD40F233439A42A2F2334203DCD1
:10067000524200F0E9F800E090402C43F1D04042B3
:1006800070BDC1F30A5210B5C1F3130140F2FF333C
:1006900041F480119A4201DA002010BD40F2334348
:1006A0009A42A2F2334203DC524200F0CDF810BD70
:1006B000904010BD00F0004230F000400AD0C10D63
:1006C00001F56071C0F3160042EA0151C20840070B
:1006D00011437047002001467047000030B5041EEA
:1006E00071F1000404DB4FF00044404264EB01016F
:1006F000141E73F1000405DB1C464FF00043524208
:1007000063EB04038B4208BF824230BD30B5041E48
:1007100071F1000404DB4FF00044404264EB01013E
:10072000141E73F1000405DB1C464FF000435242D7
:1007300063EB0403994208BF904230BD01F00043CF
:1007400030B421F0004150EA010206D00A0DA2F5B2
:100750006072C1F31301002A02DC30BC0020704734
:10076000440F44EAC104C100E01830BC00EBC250A1
:1007700000F0DAB8002801DBC0F10040002901DBFD
:10078000C1F1004181427047002801DBC0F1004007
:10079000002901DBC1F100418842704730B50B46AA
:1007A000014600202022012409E021FA02F59D42A1
:1007B00005D303FA02F5491B04FA02F52844151E75
:1007C000A2F10102F1DC30BD2DE9F05F0546002009
:1007D00092469B4688460646814640241BE02846B2
:1007E00041464746224600F02FF853465A46C01A63
:1007F000914110D311461846224600F016F82D1AE2
:1008000067EB01084F4622460120002100F00DF859
:1008100017EB00094E41201EA4F10104DFDC48461D
:1008200031462A464346BDE8F09F202A04DB203AA1
:1008300000FA02F1002070479140C2F1200320FA33
:1008400003F3194390407047202A04DB203A21FA31
:1008500002F00021704721FA02F3D040C2F12002D9
:100860009140084319467047202A06DBCB17203AEF
:1008700041FA02F043EAE07306E041FA02F3D040A5
:10088000C2F1200291400843194670470FB400237B
:1008900000B589B00CA900910B996FF00042CB60B4
:1008A0001E4B06931E4B07930423CDE901321D4ACC
:1008B000089202466B46002000F0D2F909B05DF8BC
:1008C00014FB70B586B006464FF0FF300091CDE9BD
:1008D0000101002015460C4604903246694604A8E2
:1008E000FFF7D4FF02460498211825B108B1084645
:1008F00000E020462860049800280DD0002A02DD80
:100900000098884208D0081B0094CDE901043246C3
:10091000694604A8FFF7BAFF06B070BD990E00083B
:10092000B70E00082D0B00080029A8BF7047401C17
:10093000490008BF20F00100704710B4B0FA80FCF5
:1009400000FA0CF050EA010404BF10BC704749B132
:10095000CCF1200421FA04F411FA0CF118BF0121A2
:1009600021430843A3EB0C01CB1D4FEA00614FEA82
:10097000102042BF002010BC704700EBC350104451
:100980000029A4BF10BC7047401C490008BF20F0DC
:10099000010010BC704710B5141E73F1000408DA92
:1009A000401C41F1000192185B411A4301D120F033
:1009B000010010BD2DE9F04D92469B4611B1B1FAF0
:1009C00081F202E0B0FA80F220329046FFF72DFF6C
:1009D00004460F4640EA0A0041EA0B0153465A46D4
:1009E000084313D0114653EA010019D0C8F1400260
:1009F0005046FFF729FF05460E46504659464246E7
:100A0000FFF713FF084305D0012004E020463946D4
:100A1000BDE8F08D0020054346EAE0762C433743DD
:100A20000A986305E40AA0EB08000022FD0A44EAE4
:100A300047540A3002D500200146E9E701051019A4
:100A40006941DDE9084500196941BDE8F04DA2E7BB
:100A50002DE9FE4FC3F30A5701F000450024C1F30E
:100A60000A56C3F31303C1F3130143F4801312EBCB
:100A7000020AA64641F48011009543EB030CA7F14E
:100A8000010B16E0B0EB0A0061EB0C01071E71F1DF
:100A9000000707DA4FF00008D0EB080085F00045AA
:100AA00068EB0101171A73EB0107EBD3761E0018F0
:100AB00049415E45F6DA50EA010209D0CDE900E588
:100AC000002213460296FFF775FF03B0BDE8F08FD2
:100AD00020460099F9E7C1F30A52C1F3130140F22D
:100AE000FF3341F480119A4202DA00200146704738
:100AF00040F233439A42A2F2334202DC5242FFF701
:100B0000A3BEFFF792BE0000064C074D06E0E0686A
:100B100040F0010394E8070098471034AC42F6D344
:100B2000FFF7E8FA90550008B0550008C0B24FF43E
:100B3000F05100F0E9B900002DE9FF4F087883B0CB
:100B40009946FF2805D0491C2D2804D000240020F8
:100B500008E000200BE00124F9E700EB800003EB44
:100B60004000491C0B78FF2BF7D104B14042002311
:100B70000293147819461D462D2C01D02B2C04D13C
:100B8000521C2D2C13D000240294AA461478FF2C5A
:100B90000FD00A25A3FB057801FB05814FF0000C5F
:100BA00003FB0C11521CE3194AEB0101EEE701248F
:100BB000EAE7814453EA010002D019F5C87F06DA5A
:100BC00003980021C0E9001107B0BDE8F08F0025AF
:100BD000AE4E2F46DFF8B882184600F0A9F9CDE9ED
:100BE0000001B9F1000002DAC9F1000400E0044696
:100BF0000023A74A1AEB030B42EB045A12E0E0076A
:100C000007D02A46334638464146FFF7FAFB0746E7
:100C100088462A46334610461946FFF7F2FB05463A
:100C20000E466410002CEAD1DDE90001B9F1000F95
:100C30005A46534606DAFFF756FC3A464346FFF754
:100C400052FC05E0FFF7DDFB3A464346FFF7D9FBD0
:100C5000029A0AB181F00041039AC2E90001B3E7A8
:100C60002DE9FF4F1F468DB0D7E901464FF0FF3801
:100C70002E2045464FF000090B90B9696D1C0E9867
:100C80008847396A824688470028F6D1BAF1FF3F83
:100C90000AD024F4D064002E11DDBAF12B0F08D055
:100CA000BAF12D0F0BD102E0404611B08DE744F4AC
:100CB0008064B9696D1C0E9888478246761E694625
:100CC000600501D52D2000E02B208DF8000001F1FA
:100CD000010B0DF1200809E0B9696D1C0E988847D9
:100CE00082460F9844F40074761E0560002E02DDE3
:100CF000BAF1300FF0D00B998A453ED144F0800410
:100D000006E00F99681CA9F1010944F40074086019
:100D1000B9696D1C761E0E98884782463028F0D03F
:100D20002BE00B998A4505D1200603D444F08004BA
:100D3000761E18E0504601F025FF08B30DF11301AF
:100D4000761E44F400748B4508D2AAF130000BF8EB
:100D5000010B200607D5A9F1010003E0200602D40B
:100D600009F101008146A00502D50F99681C0860B1
:100D7000B9696D1C0E9888478246002ED1DC53E07D
:100D8000002E51DDBAF1650F02D0BAF1450F4BD1FB
:100D9000A00549D5B9696D1C24F44074761E0E98DF
:100DA00088478246002E0CDD2B2804D0BAF12D0F87
:100DB00007D144F48074B9696D1C0E988847824647
:100DC000761EE00501D52D2100E02B2108F8011B3E
:100DD000CDF82C8021E00DF12901761E44F4007439
:100DE00088450CD2AAF1300010F0FF0088F800000E
:100DF00002D10B99884509D908F1010806E0E00500
:100E000001D5244801E042F20F708146B9696D1C9A
:100E10000E98884782460F980560002E04DD5046E4
:100E200001F0B0FE0028D6D1F9690E988847FF205E
:100E30008BF8000088F800000020069007904B46D1
:100E40006A4608A906A8FFF777FEA00502D46FF04E
:100E500001002AE714F0240F0AD0E00714D1DDE9DD
:100E600006123868031D3B600068C0E900120BE001
:100E7000DDE90601FFF762FC0146E00704D13868AE
:100E8000021D3A600068016028460EE70000144029
:100E90000000F03FF1D8FFFF426842B1016811F84D
:100EA000013B23B1521EC0E90012184670470121D0
:100EB000C160881E704742685AB1C368016843B96F
:100EC00083688B4205D0491E521CC0E900120020E5
:100ED00070474FF0FF30704770B521F00043034377
:100EE0000CD0C1F30A550024D5EB040564EB0403D0
:100EF000D617AD1AB34102DB0020014670BD2018A1
:100F000041EB025170BD00007F2801D9002208E0AA
:100F1000064A02EB5002C007127800D1120902F013
:100F20000F02012090400840704700005055000813
:100F30000EB540F2334202920022CDE90022134660
:100F4000FFF738FD03B000BD21B1826842F0010215
:100F5000826003E0826822F0010282607047000034
:100F600010B504461248844208D10121401500F012
:100F70004BFF0021601500F047FF17E00D48844249
:100F800008D10121001500F03FFF0021201500F0DD
:100F90003BFF0BE00848844208D10121C80300F060
:100FA00033FF00214FF4004000F02EFF10BD000081
:100FB0000024014000280140003C0140014600207F
:100FC0008A6802F004020AB1012000E000207047A4
:100FD0000146C86C80B270470246002013680B407F
:100FE0000BB1012000E000207047014600208A6814
:100FF00002F008020AB1012000E000207047000062
:1010000030B502460020002350680F4C20400D7977
:101010000C6844EA05242043506090680B4C204043
:10102000D1E902542C434D7944EA450420439060B1
:10103000D06A20F470000C7C641EE4B2234340EAC2
:101040000350D06230BD0000FFFEF0FFFDF7F1FF5E
:10105000F0B504460D4600200021092D11DDE068A1
:10106000A5F10A0606EB4607072606FA07F18843AC
:10107000A5F10A0606EB460603FA06F10843E0600E
:101080000CE0206905EB4507072606FA07F18843BF
:1010900005EB450603FA06F108432061072A0FDA3B
:1010A000606B561E06EB86071F2606FA07F188437B
:1010B000561E06EB860605FA06F10843606322E039
:1010C0000D2A0FDA206BD61F06EB86071F2606FABD
:1010D00007F18843D61F06EB860605FA06F108439A
:1010E000206310E0E06AA2F10D0606EB86071F26DA
:1010F00006FA07F18843A2F10D0606EB860605FA0B
:1011000006F10843E062F0BD816841F008018160AA
:10111000704721B1826842F4A002826003E08268D5
:1011200022F4A00282607047816841F0040181606E
:10113000704700002DE9FF47002037490860374914
:1011400008603749086082462DE03649087802F089
:10115000FDF80446304801682046FEF7E3FF2E49BB
:1011600008603149087802F0F1F804462B4801681C
:101170002046FEF7D7FF294908602C4800682C4913
:1011800088420BD02949087802F0E0F80446244848
:1011900001682046FEF7C6FF21490860012003F0E0
:1011A00019F80AF1010ABAF57A7FCEDB21491A480B
:1011B0000068FFF741F8184908601E4917480068A1
:1011C000FFF73AF81549086018480068184988423E
:1011D00006D0184912480068FFF72EF81049086039
:1011E0000F480068FFF766FA04460D460B48006892
:1011F000FFF760FA06460F4607480068FFF75AFAFD
:10120000804642460B460CA0CDE90067CDE9024579
:1012100001F00CFBBDE8FF87B4000020B8000020FF
:10122000BC0000209C000020A0000020A4000020A2
:10123000C7CFFFFF00007A446F66667365745F690D
:10124000613A252E34662C6F66667365745F696239
:101250003A252E34662C6F66667365745F69633A4F
:10126000252E34662E0D0A0008B501211D2000F040
:10127000BBFD01211C4800F0CBF84FF40050ADF845
:10128000000010208DF8030001208DF8020069464F
:10129000164800F031F84FF40051144800F000F9FE
:1012A0001020ADF800008DF8030001208DF8020039
:1012B00069460F4800F020F810210D4800F0F0F8C2
:1012C0004FF44060ADF8000010208DF803000120BD
:1012D0008DF802006946074800F00EF84FF44061AF
:1012E000044800F0DFF808BD0002300000100140A3
:1012F00000080140000C01402DE9F04102460025A4
:101300000026002000230024002791F803C00CF0E1
:101310000F0591F803C00CF0100CBCF1000F03D0C6
:1013200091F802C04CEA050591F800C0BCF1000F2D
:1013300031D0146800202BE04FF0010C0CFA00F3C0
:10134000B1F800C00CEA03069E4220D183004FF0A2
:101350000F0C0CFA03F7BC4305FA03FC4CEA040437
:1013600091F803C0BCF1280F06D14FF0010C0CFA24
:1013700000FCC2F814C00AE091F803C0BCF1480FA9
:1013800005D14FF0010C0CFA00FCC2F810C0401C53
:101390000828D1D31460B1F800C0BCF1FF0F34DDD0
:1013A000546800202EE000F1080C4FF0010808FA04
:1013B0000CF3B1F800C00CEA03069E4221D1830071
:1013C0004FF00F0C0CFA03F7BC4305FA03FC4CEA90
:1013D000040491F803C0BCF1280F05D100F1080CFA
:1013E00008FA0CF8C2F8148091F803C0BCF1480F59
:1013F00007D100F1080C4FF0010808FA0CF8C2F808
:101400001080401C0828CED35460BDE8F081000055
:10141000F0B50A46002300240021002500F0004614
:10142000B6F1004F02D11D4EF16901E01B4E71680B
:10143000C0F3034583B200F44016B6F5401F08D14F
:1014400021F07061154E766826F07066134F7E604D
:1014500012E000F48016B6F5801F06D1032606FAC6
:1014600005F4A14341F0706106E0460D360103FA30
:1014700006F6B14341F0706122B1460D360103FA20
:1014800006F6314300F00046B6F1004F02D1034E9C
:10149000F16101E0014E7160F0BD0000000001400B
:1014A000416170470161704721B1028842F0010239
:1014B000028004E002884FF6FE731A4002807047F3
:1014C00010B504460B48844209D10121480500F0BB
:1014D0007BFC00214FF4001000F076FC08E00121B5
:1014E000880500F071FC00214FF4800000F06CFCD6
:1014F00010BD00000054004021B1028842F4007287
:10150000028004E002884FF6FF531A4002807047C1
:101510002DE9F04385B004460D460026B146042768
:10152000DFF8CC80A6884FF6C0700640684600F011
:101530007BFCDDF808802F48B8FBF0F01FFA80F93B
:1015400046EA0906A68020884FF6FE7108402080F2
:1015500000262949286888420CD828684000B8FB32
:10156000F0F087B2042F00DA04273E4309F10100AE
:10157000208427E0E8884BF6FF71884206D128686E
:1015800000EB4000B8FBF0F087B209E0286800EB00
:10159000C00101EB0010B8FBF0F087B247F48047C0
:1015A000C7F30B0008B947F0010747F400400643B2
:1015B0004FF4967009FB00F04FF47A7190FBF1F054
:1015C000401C2084A683208840F0010020802688CB
:1015D0004FF6F5300640A8886989084306432680FF
:1015E000A88929890843208105B0BDE8F08300005F
:1015F00000127A0040420F00A086010000B585B0BD
:101600000121082000F0F0FB0121480500F0CCFB8F
:10161000C020ADF810001C208DF8130003208DF8B9
:10162000120004A91348FFF767FE1348FFF748FFAD
:101630000020ADF804004BF6FF70ADF80600002066
:10164000ADF808004FF48060ADF80A000001ADF875
:101650000C000A48009069460748FFF759FF01212E
:101660000548FFF721FF01210348FFF745FF05B0BB
:1016700000BD0000000C014000540040801A06002C
:101680002DE9F04104464FF6FF75208840F4807044
:10169000208005E0281EA5F1010501D1BDE8F081FB
:1016A000A08A00F001000028F4D06C2020824FF6C0
:1016B000FF7504E0281EA5F1010500D1EEE7A08A20
:1016C00000F002000228F5D1268B0C20208200BFFA
:1016D000A08A00F004000428FAD1208840F40060B9
:1016E00020804FF6FF75208840F48070208004E051
:1016F000281EA5F1010500D1D0E7A08A00F0010065
:101700000028F5D04FF6FF756D20208204E0281EDA
:10171000A5F1010500D1C1E7A08A00F0020002286E
:10172000F5D172B6268B20884FF6FF310840208015
:1017300062B600BFA08A00F004000428FAD172B695
:1017400001212046FFF7D8FE208AC7B262B6208A60
:1017500000F0FF0800BF208800F40070B0F5007FA3
:10176000F9D0208840F48060208020884FF2FF71FB
:1017700008402080701C86B208EB072080B28DE7FD
:101780002DE9FF4F87B00D4616469946234806605F
:101790002348C0F800902349149808602846FEF7B3
:1017A00089FF074688460798FEF784FF02460B46E6
:1017B000CDE9020100201C49FEF795FE3A4643465A
:1017C000CDE90401FEF78FFE8246FEF7B7FF04461F
:1017D0001648046084F0004015490860154804600C
:1017E0000068FEF767FF0746884611480068FEF765
:1017F00061FFCDE904010D480068FEF75BFF8246FA
:101800000B46CDE90278DDE904015246CDE900013D
:1018100009A001F00BF80BB0BDE8F08F9C00002090
:10182000A0000020A40000200000F03FA80000203D
:10183000AC000020B00000206761696E5F613A254E
:101840002E32662C6761696E5F623A252E32662CF5
:101850006761696E5F633A252E32662E0D0A0000BD
:1018600010B505480268054801680548006802F09F
:1018700013FCFFF75FFC10BDA4000020A0000020B7
:101880009C00002010B50E480E49086000204860FA
:1018900001F080F90B49886009480B490860002075
:1018A000486001F077F908498860054807490860F1
:1018B0000020486001F06EF90449886010BD000006
:1018C0000AD7A33C600200206C02002078020020AE
:1018D0002DE9F84F04460D4601F05CF98046A168F9
:1018E000A8EB0100FEF777FE82461B49FEF772FC6B
:1018F0008146C4F8088000214846FEF73BFF02D22B
:10190000DFF8589008E016494846FEF73DFF03D23D
:1019100065602846BDE8F88F49462068FEF702FC5E
:10192000824651462068FEF787FC064631464FF056
:101930007E50FEF749FC83462946FEF74BFC824663
:1019400030466168FEF746FC51460090FEF7EAFB20
:10195000074667603846DDE7BD3786356F12833A44
:101960009A99993E10B500201849088001204880B6
:10197000082088800020164908800120488008201F
:101980008880022013490880012048800820888030
:10199000FFF734FE4FF480500F4908600FA000F0AD
:1019A00045FF0A2002F016FC02F0F0FE0E49086026
:1019B00000200E4908600E490860052002F00AFC6C
:1019C00002F09CFC0B49086010BD000020000020C4
:1019D000260000202C000020340000204153353622
:1019E00030300D0A000000003C00002038000020CC
:1019F000440000204000002010B517A000F016FFA2
:101A00001848016818480068FEF7BEFE03D2154862
:101A100000681549086013480068144908611148B6
:101A20000068134908611348007820B90D48006820
:101A30001149086103E0114800680F490861104826
:101A40000068104908614FF400710F48FFF72AFD44
:101A50000EA000F0EBFE10BD4D4F543A20496E69C8
:101A6000740D0A008400002088000020D0010020AE
:101A7000F4010020700000201802002098000020CF
:101A8000940000203C020020000C01404D4F543ACD
:101A900020456E61626C65206472697665722E0DF8
:101AA0000A00000070B504460D4600212046FEF7EE
:101AB00061FE03D0114804601148056001F0C4FDC7
:101AC00002F01CFC0F490860322002F083FB03F097
:101AD00087FA0D490860052002F07CFB03F068FAE4
:101AE0000A4908600A480078022803D108460068BD
:101AF00008490860C82002F06DFB70BD7800002026
:101B00007C00002040000020500000204800002001
:101B100071000020C800002070B5002100230F22B2
:101B2000C47804B3154C246804F4E064C4F5E0649C
:101B3000210AC1F10403CA40447804FA03F184780D
:101B40001440214309010E4C0678A155047804F095
:101B50001F050124AC4005786D11AD0005F1E025AD
:101B6000C5F8004109E0047804F01F050124AC40E9
:101B7000044D0678761145F8264070BD0CED00E066
:101B800000E400E080E100E010B54FF07C501D491A
:101B90000860002048608860C86048618861C8614A
:101BA00000F0F8FF1749086217481849086000203C
:101BB00048608860C86048618861C86100F0EAFFD9
:101BC000124908624FF07C501149086000204860BB
:101BD0008860C86048618861C86100F0DBFF0C491B
:101BE00008624FF07C500B49086000204860886014
:101BF000C86048618861C86100F0CCFF054908628F
:101C000010BD0000180200200000A0413C0200208E
:101C1000D0010020F40100202DE9F04F85B00446EA
:101C20000F4600F0B7FF8146216AA9EB0100FEF7DD
:101C3000D2FC54490390FEF7CDFA8246C4F82090B6
:101C400000215046FEF796FD09D95046FEF732FDB9
:101C500000224D4BCDE90201FEF758FD01D2DFF81D
:101C60002CA139462068FEF7B5FA04903846616920
:101C7000FEF758FA029051466068FEF7ABFA4FF053
:101C80007C510090FEF7A6FA01900299FEF7A2FAA5
:101C90000390E169FEF746FA0546206980F00040AE
:101CA00029460390FEF770FD03D2206980F00040C2
:101CB00007E028462169FEF767FD01D2206900E0B0
:101CC0002846054638466169FEF77EFA0290A1680B
:101CD000FEF780FA51460390FEF7AEFA8346294696
:101CE0000498FEF71FFA59460390FEF71BFA0646C2
:101CF000206980F0004031460390FEF745FD03D295
:101D0000206980F0004007E030462169FEF73CFD85
:101D100001D2206900E0304606460021E068FEF767
:101D200033FD28D23046A169FEF74EFA51460390A2
:101D3000FEF782FA80464046E168FEF725FD09D2AB
:101D40005146E068FEF746FA0390A169FEF7EAF90A
:101D5000064610E0E06880F0004041460390FEF740
:101D600013FD08D25146E068FEF734FA0390A169EA
:101D7000FEF72DFA0646E561A6616761304605B0BB
:101D8000BDE8F08FBD3786350000E03F6F12833A23
:101D900001460020034A506820F440400843506048
:101DA000704700000010024029B1064AD269024380
:101DB000044BDA6104E0034AD2698243014BDA61E1
:101DC000704700000010024029B1064A1269024320
:101DD000044B1A6104E0034A12698243014B1A6101
:101DE000704700000010024029B1064A9269024380
:101DF000044B9A6104E0034A92698243014B9A6161
:101E0000704700000010024029B1064AD268024320
:101E1000044BDA6004E0034AD2688243014BDA6083
:101E2000704700000010024030B50021002200245D
:101E300000232D4D6D6805F00C0121B1042905D05A
:101E4000082923D105E0294D056022E0274D0560D2
:101E50001FE0254D6D6805F47012234D6D6805F483
:101E60008034022505EB92421CB9214D5543056093
:101E70000BE01D4D6D6805F400351DB11C4D55433B
:101E8000056002E0194D5543056002E0174D0560FD
:101E900000BF00BF144D6D6805F0F0010909154D34
:101EA0006B5C0568DD4045600F4D6D6805F4E061D1
:101EB000090A104D6B5C4568DD4085600A4D6D6810
:101EC00005F46051C90A0B4D6B5C4568DD40C56087
:101ED000054D6D6805F44041890B074D6B5CC56885
:101EE000B5FBF3F5056130BD0010024000127A0029
:101EF00000093D00000000201000002010B500F097
:101F000001F810BD0CB50020019000903348006826
:101F100040F480303149086000BF3048006800F468
:101F2000003000900198401C0190009818B9019869
:101F3000B0F5A06FF1D12948006800F4003010B16D
:101F40000120009001E0002000900098012843D17A
:101F50002348006840F010002149086008460068E6
:101F600020F0030008600846006840F002000860A6
:101F70001A48406819494860084640684860084661
:101F8000406840F4806048600846406820F47C1057
:101F900048600846406840F4E81048600846006819
:101FA00040F08070086000BF0C48006800F00070CE
:101FB0000028F9D00948406820F00300074948602C
:101FC0000846406840F00200486000BF034840688F
:101FD00000F00C000828F9D10CBD000000100240F0
:101FE0000020024002480068401C01490860704718
:101FF0001400002010B51348006840F0010011499A
:10200000086008464068104908400E494860084684
:1020100000680E4908400B4908600846006820F433
:10202000802008600846406820F4FE0048604FF4B5
:102030001F008860FFF762FF4FF0006004490860EE
:1020400010BD0000001002400000FFF8FFFFF6FE88
:1020500008ED00E000B589B001210420FFF7C4FEBF
:1020600001210846FFF7A0FE0720ADF82000182048
:102070008DF8230003208DF8220008A92448FFF7DB
:102080003BF94FF0804000F05DF80020ADF81400FF
:1020900040F29F50ADF818002020ADF81600002047
:1020A000ADF81A0005A94FF0804000F055FA602005
:1020B000ADF804000120ADF806000020ADF80A00DC
:1020C000ADF80C0001A94FF0804000F02FF901A9F4
:1020D0004FF0804000F080F901A94FF0804000F0FF
:1020E000DBF90821C80600F06DF90821C80600F0E8
:1020F000C5F90821C80600F01FFA0121880700F081
:1021000009F80121880700F011F809B000BD0000AE
:102110000008014021B1028842F08002028004E000
:1021200002884FF67F731A400280704721B10288FF
:1021300042F00102028004E002884FF6FE731A406A
:102140000280704710B504466848844208D10121D6
:10215000C014FFF759FE0021E014FFF755FEC4E05C
:10216000B4F1804F08D101210846FFF72DFE002170
:102170000120FFF729FEB8E05D48844208D1012123
:102180000220FFF721FE00210220FFF71DFEACE038
:102190005848844208D101210420FFF715FE002190
:1021A0000420FFF711FEA0E05348844208D101212A
:1021B0000820FFF709FE00210820FFF705FE94E044
:1021C0004E48844208D101211020FFF7FDFD002177
:1021D0001020FFF7F9FD88E04948844208D1012129
:1021E0002020FFF7F1FD00212020FFF7EDFD7CE02E
:1021F0004448844208D101214014FFF705FE002124
:102200006014FFF701FE70E03F48844209D10121CC
:10221000C804FFF7F9FD00214FF40020FFF7F4FD9B
:1022200063E03A48844209D101210805FFF7ECFD3B
:1022300000214FF48010FFF7E7FD56E03448844258
:1022400009D101214805FFF7DFFD00214FF40010FF
:10225000FFF7DAFD49E02F48844208D101214020F0
:10226000FFF7B2FD00214020FFF7AEFD3DE02A4818
:10227000844208D101218020FFF7A6FD00218020A3
:10228000FFF7A2FD31E02548844208D101218015E5
:10229000FFF79AFD0021A015FFF796FD25E02048E5
:1022A000844209D101210804FFF7AEFD00214FF45B
:1022B0008030FFF7A9FD18E01A48844209D10121B6
:1022C0004804FFF7A1FD00214FF40030FFF79CFD0B
:1022D0000BE01548844208D101218804FFF794FDE2
:1022E00000214FF48020FFF78FFD10BD002C01402E
:1022F0000004004000080040000C004000100040B6
:102300000014004000340140004C014000500140E6
:102310000054014000180040001C00400020004014
:1023200000400140004401400048014070B50024D5
:1023300000220023058C4FF6FE7635400584028C82
:102340008388048B4FF68F752C40B51E2C400D886A
:102350002C43751E2A400D892A434D882A43144D6B
:10236000A8420BD0134DA84208D0134DA84205D067
:10237000124DA84202D0124DA84213D14FF6F77564
:102380002A404D892A434FF6FB752A408D882A43FF
:102390004FF6FF652B404FF6FF552B408D892B43A1
:1023A000CD892B4383800483CD888586028470BDCC
:1023B000002C014000340140004001400044014035
:1023C000004801400A460021018B4FF6F77319407F
:1023D000114301837047000070B5002400220023E0
:1023E000058C4FF6EF7635400584028C8388048B8C
:1023F00048F6FF752C404FF6FF452C400D884FF6F0
:10240000FF7606EA05252C434FF6DF752A400D8935
:1024100006EA05152A434D8806EA05152A43154D97
:10242000A84202D0144DA8421DD14FF67F752A4014
:102430004D894FF6FF7606EA05152A434FF6BF751C
:102440002A408D8806EA05152A434FF6FF352B40B2
:102450004FF2FF752B408D8906EA85052B43CD8908
:1024600006EA85052B4383800483CD880587028493
:1024700070BD0000002C0140003401400A460021DC
:10248000018B4FF2FF7319404FF6FF7303EA0223EB
:10249000194301837047000070B500240022002317
:1024A000058C4FF6FF6635400584028C8388848B4B
:1024B0004FF68F752C404FF6FC752C400D882C4341
:1024C0004FF6FF552A400D894FF6FF7606EA05259F
:1024D0002A434D8806EA05252A43154DA84202D015
:1024E000144DA8421DD14FF2FF752A404D894FF679
:1024F000FF7606EA05252A434FF6FF352A408D88E8
:1025000006EA05252A434EF6FF752B404DF6FF756A
:102510002B408D8906EA05152B43CD8906EA051562
:102520002B4383808483CD888587028470BD00001F
:10253000002C0140003401400A460021818B4FF6F7
:10254000F773194011438183704781867047018773
:102550007047818770470000002202881D4B984217
:102560000ED01D4B98420BD0B0F1804F08D01B4BC2
:10257000984205D01A4B984202D01A4B984204D187
:102580004FF68F731A404B881A43174B984207D067
:10259000164B984204D04FF6FF431A40CB881A439B
:1025A00002808B8883850B8803850A4B98420BD069
:1025B000094B984208D00E4B984205D00D4B9842DB
:1025C00002D00D4B984201D10B7A038601238382FE
:1025D00070470000002C014000340140000400401E
:1025E00000080040000C00400010004000140040B3
:1025F00000400140004401400048014010B540F255
:102600002551204800F050F800283AD01D4800F02D
:1026100007F9C4B21C48008800F40040F8B91A4811
:10262000008800F4804090B10A2C03D000201649A5
:10263000088026E01448008840F4004012490880D1
:1026400000200988C1F30D01104A505419E00D2CE7
:1026500006D10D48008840F480400B49088010E006
:1026600009480088C0F30D0008490C54064800884A
:10267000401C0549088008460088FF2801DD00202D
:10268000088010BD003801401C000020D000002050
:1026900021B1828942F40052828104E082894DF6A0
:1026A000FF731A408281704770B5024600240023F0
:1026B0000025002040F66A16B14200D100BFC1F3E8
:1026C000421501F01F03012606FA03F3012D02D182
:1026D0009689334006E0022D02D1168A334001E08C
:1026E000968A33400C12012606FA04F41688344008
:1026F00013B10CB1012000E0002070BDF0B503461D
:10270000002400260025002040F66A17B94200D1B7
:1027100000BF1846C1F3421401F01F06012707FA53
:1027200006F5012C01D10C3004E0022C01D110304F
:1027300000E014301AB107682F43076002E0076811
:10274000AF430760F0BD00002DE9F04786B00546B5
:102750000E460024A24600BFA1460027B08900B162
:1027600000BF2F462C8A4CF6FF700440F0880443CB
:102770002C82AC894EF6F3100440B08831890843AE
:10278000718908430443AC81AC8A4FF6FF40044092
:10279000B0890443AC8201A8FFF746FB1F4887427B
:1027A00002D1DDF810A001E0DDF80CA0A88900F44A
:1027B000004040B10AEBCA0000EB0A103168490042
:1027C000B0FBF1F807E00AEBCA0000EB0A10316831
:1027D0008900B0FBF1F86420B8FBF0F00401200997
:1027E000642101FB1089A88900F4004040B1322027
:1027F00000EBC900B0FBF1F000F00700044308E073
:10280000322000EB09106421B0FBF1F000F00F0062
:1028100004432C8106B0BDE8F08700000038014079
:1028200001468888C0F30800704700000FB4054BCC
:1028300010B503A9044A029800F0F0F910BC5DF845
:1028400014FB0000E142000818000020490050EA93
:10285000C12018BF04204A0D18BF40F0010040F20B
:10286000FF72B2EB515F08BF40F00200012808BFC1
:10287000052070472DE9F0414F1E00EBC7010446CB
:10288000D1E9000115461E4637F006020DD02A4652
:102890003346FDF7B6FD7F1E04EBC703D3E90023E3
:1028A000FDF708FD37F00602F1D1022F25D0042FE5
:1028B00013D0062F18BFBDE8F0812A463346FDF736
:1028C000A0FDD4E90A23FDF7F5FC2A463346FDF7BF
:1028D00098FDD4E90823FDF7EDFC2A463346FDF7C1
:1028E00090FDD4E90623FDF7E5FC2A463346FDF7C3
:1028F00088FDD4E90423FDF7DDFC2A463346FDF7C5
:1029000080FDD4E90223FDF7D5FC2A463346FDF7C6
:1029100078FDD4E90023BDE8F041FDF7CBBC0122EE
:10292000FEF7DABAFDF7C6BC002213461046114680
:10293000FDF7D9BD024A00201107FEF7CDBA00000D
:1029400001FDFFFF0148006870470000CC00002037
:1029500002E008C8121F08C1002AFAD17047704768
:10296000002001E001C1121F002AFBD170470000C6
:102970000149086070470000CC0000202DE9F047B5
:1029800006463046FDF796FE0746134A134BFDF701
:1029900091FC0446FDF7D2FE81464846FDF78AFECB
:1029A00007460F4A0F4BFDF7B1FE08D24846FDF728
:1029B00081FE07460A4A0B4BFDF71DFD02E0484623
:1029C000FDF778FE0446FDF7B9FE8146484600F063
:1029D000DFFCBDE8F0870000F4D64354FB21F93F4B
:1029E000EA2E4454FB21194070B504460D46284692
:1029F000FDF7E8FD06462146FDF7ECFB70BD000043
:102A00002DE9FF5F82B00021DDE90430020DDDF821
:102A100040B0034318D044F61050A2F2FF324243B4
:102A20001514119801281FD0A5EB0B00401C5FEA7C
:102A3000000A4FF000064E4FDFF83891B04650467E
:102A400015D5CAF1000413E0119801244AA3012806
:102A500001D16FEA0B010298119AC0E90031C0E977
:102A6000024206B0BDE8F09FCBF10000DFE704466C
:102A70000021404A491842EB0450CDE9001012E011
:102A8000E00707D032463B4640464946FDF7B9FCD1
:102A90008046894632463B4610461946FDF7B1FC52
:102AA00006460F466410002CEAD1DDE90401DDE999
:102AB0000023BAF1000F06DAFDF7A3FC42464B46AD
:102AC000FDF79FFC05E0FDF70EFD42464B46FDF786
:102AD0000AFD04460E460022284BFDF717FE03D8D8
:102AE0004FF0FF30014607E00022254B20463146DB
:102AF000FDF7E0FBFDF7EFFF102409E0002C0ADBF7
:102B00000A220023FDF760FE039B30321A55641E33
:102B100050EA0102F2D1641C039AC4F11103144477
:102B2000119A012A03D0012208430DD10AE008437B
:102B300004D000204FF0110B119072E7A3EB0B05AE
:102B40006D1E0DE05B4504DD4FF0000205F101054F
:102B500004E003DA4FF00002A5F10105002AECD0F1
:102B600002981199C0E90231C0E9004579E70000F7
:102B7000000014400000F03F300000000000F0436F
:102B80000000E03F30380A2801D2012070470020C1
:102B90007047000000BF0A4801684FF0E0208269DA
:102BA000074800688142F6D10648801A4823B0FBE6
:102BB000F3F001EB4103C3EBC11300EBC30070471B
:102BC00014000020401901002DE9F0470646304668
:102BD000FDF770FD07460F4A0F4B01F037FB044627
:102BE000FDF7ACFD814600214846FDF7CDFD03D839
:102BF0004846FDF75FFD07E04846FDF75BFD0746E9
:102C0000044A054BFDF756FB0446FDF797FDBDE86A
:102C1000F0870000EA2E4454FB2119402DE9FF4FB4
:102C200095B09B468946064600250FE2252877D1B8
:102C300000242746F84A0121059400E0044316F8D1
:102C4000013F203B01FA03F01042F7D130782A28E7
:102C500011D06FF02F033078A0F13002092A16D876
:102C6000059A44F0020402EB820203EB4202104494
:102C7000761C0590EFE759F8042B0592002A03DA39
:102C8000504244F40054059044F00204761C30781D
:102C90002E2816D116F8010F44F004042A280DD06E
:102CA0006FF02F023078A0F13003092B09D807EB21
:102CB000870302EB4303C718761CF3E759F8047B3C
:102CC000761C30786C280FD006DC4C2817D068288A
:102CD0000DD06A2814D104E0742810D07A280FD1BE
:102CE0000DE044F400140AE044F4801401E044F4DC
:102CF00040147278824202D104F58014761C761C4E
:102D0000307866280BD013DC582877D009DC0028EF
:102D100075D04528F6D04628F4D047281AD19DE131
:102D200018E0632835D0642879D0652812D195E160
:102D3000702873D008DC6728F1D069286FD06E281E
:102D40000DD06F2806D1B5E073282CD0752875D02A
:102D5000782874D05A46179990476D1C75E1C4F3D2
:102D60000250022809D003280DD0D9F800100428F9
:102D70000DD00D6009F1040967E1D9F80010EA17D8
:102D8000C1E90052F6E7D9F800100D80F2E70D70A6
:102D9000F0E719F8041B8DF8001000208DF80100F1
:102DA000EA46012003E059F804AB4FF0FF30610719
:102DB0004FF0000102D40DE008F101018846B9424C
:102DC0000FDA8045F8DB1AF808100029F4D108E082
:102DD00008F1010188468142FADB1AF8081000293F
:102DE000F6D105985B46A0EB080721463846179AAE
:102DF00000F094FA284400EB080507E04DE029E1D3
:102E00000DE01AF8010B5A4617999047B8F10108DE
:102E1000F7D25B4621463846179A13E142E00A2270
:102E20000092C4F302524FF0000A022A08D059F867
:102E300004CB032A4FEAEC710AD00DE029E02AE026
:102E400009F1070121F00702F2E802C1914609E009
:102E50000FFA8CFC4FEAEC71042A03D14FFA8CFC78
:102E60004FEAEC71002907DA0A460021DCF1000C78
:102E700061EB02012D2202E0220504D52B228DF800
:102E80000420012203E0E20701D02022F7E7904668
:102E900059E00A2102E010220DE010214FF0000A53
:102EA00000910BE010224FF0000A44F004040827C0
:102EB000009203E008224FF0000A0092C4F302528D
:102EC000022A05D059F804CB0021032A08D009E0D2
:102ED00009F1070121F00702F2E802C1914605E07D
:102EE0001FFA8CFC042A01D10CF0FF0C4FF00008F3
:102EF000220728D5702806D0009B83F0100353EAE0
:102F00000A0305D00EE040228DF80420012208E0DB
:102F10005CEA010206D030228DF804208DF805000D
:102F200002229046009B83F0080353EA0A030AD169
:102F30005CEA010201D1620705D530228DF8042038
:102F40004FF001087F1E582804D034A003900EA82B
:102F500002900DE036A0F9E753466046009AFDF76F
:102F600033FC84460398825C0298401E02900270F3
:102F70005CEA0100F0D1029806A9081A00F1200AC3
:102F8000600702D524F4803400E00127574502DDB4
:102F9000A7EB0A0000E0002000EB0A010090059872
:102FA0004144401A0590E00306D45B462146179A37
:102FB000059800F0B3F90544002706E001A85A4639
:102FC000C05D179990476D1C7F1C4745F6DBE003F9
:102FD0000CD55B462146179A059800F09FF90544E9
:102FE00004E030205A46179990476D1C0099481EFE
:102FF00000900029F5DC08E0029802995A46007812
:10300000491C0291179990476D1CBAF10001AAF171
:10301000010AF1DC65E1000009280100303132339A
:103020003435363738396162636465660000000004
:1030300030313233343536373839414243444546EE
:103040000000000000F058F90544761C3078002894
:103050007FF4ECAD19B02846BDE8F08F620700D4CC
:10306000062709F1070222F0070CFCE80223E146DB
:1030700003F000485FEA080C02D00FF2702C0DE05C
:103080005FEA045C02D50FF2682C07E05FEAC47CBB
:1030900002D00FF2602C01E0AFF2700C4FF0FF385D
:1030A00023F00043CDF850C065280CD006DC45283D
:1030B00009D046281DD047283DD13DE0662818D0CC
:1030C00067287ED138E00021112F01DB112000E0BC
:1030D000781CCDE9000106A90EA8FFF791FCDDE9F7
:1030E0000F010E9A03910021009207F1010A049149
:1030F0004DE04FF000400097CDE9011006A90EA861
:10310000FFF77EFCDDE90F0203920E9B119900226E
:10311000DDF80CA00093049211B9791C00EB010AB0
:10312000B7EB0A0004D4C0F1FF3007F1010A0490A4
:10313000AAEB0700019044E0012F00DA01270021EB
:10314000112F01DD112000E03846CDE9000106A96C
:103150000EA8FFF755FCDDE90F010E9A039100213F
:1031600004910092BA4621070CD40399514500DA24
:103170008A46BAF1010F05DD009AAAF10101515CFE
:10318000302908D0B84202DA10F1040F06DA012122
:10319000CDE9011015E0AAF10101E9E7002805DCFD
:1031A000049901440491AAEB000102E0411C51453D
:1031B00000DD8A460499401A401C01904FF00040FF
:1031C0000290200704D40198504501DBCDF804801B
:1031D00000208DF84F0002980DF14F07B0F1004F1D
:1031E00025D02B200E9002984FF0020800280CDA10
:1031F000404202902D200E9007E00A210298FDF730
:10320000CDFA3031029007F8011DB8F10001A8F1A4
:103210000108F2DC02980028EFD1791E0E980870A0
:10322000307800F0200040F0450007F8020D12A8A9
:10323000C01B00F107081498007800B1012000EBD2
:103240000A01019801EBE07105984144401A401EC3
:103250000590E00306D45B462146179A059800F0D6
:103260005DF805441498007818B15A4617999047AC
:103270006D1CE00324D55B462146179A059800F0A3
:103280004DF805441CE00498002807DBDDE9030144
:10329000884203DD0098405C179901E017993020BF
:1032A0005A469047049805F10105401C0490019886
:1032B000401E019004D12E205A46179990476D1C4C
:1032C000BAF10001AAF1010ADDDC05E017F8010BF3
:1032D0005A46179990476D1CB8F10001A8F10108F2
:1032E000F4DC5B462146179A0598ABE62D000000FA
:1032F0002B000000200000002DE9F04104460025CD
:103300001E461746880404D405E039462020B047FD
:103310006D1C641EF9D52846BDE8F0812DE9F04109
:10332000044600251E469046C80301D5302700E01C
:103330002027880404D505E041463846B0476D1C77
:10334000641EF9D52846BDE8F08100002DE9F84F4C
:103350008246504600F066FB00900098FDF73BF96E
:103360008346FDF7A7F980464FF06632064BFDF71E
:1033700048F806460022054BFDF7B5F80446FDF770
:10338000DDF9BDE8F88F000066660A400000B04035
:103390002DE9FF5F83465846FDF78CF90446954AB0
:1033A000954BFDF79BF944D25846FDF783F9934AB4
:1033B000934BCDE90201FDF724F880460022134625
:1033C000FDF7A4F912D85846FDF774F980468B4AE8
:1033D0008B4BFDF716F800228A4BCDE90001FCF774
:1033E00069FFCDE90201FDF72DF911E05846FDF71F
:1033F00061F9824A824BCDE90001FDF702F8002213
:10340000804BCDE90201FCF7F6FF8046FDF71AF983
:103410007D4951F820A05046FDF7E2F806467B4A68
:103420007B4BFCF7EEFF0446FDF788F904B0BDE8DE
:10343000F09F5846FDF73EF90446764A764BFDF775
:103440004DF944D25846FDF735F96C4A6C4BCDE93D
:103450000201FCF7D6FF804600221346FDF756F91D
:1034600012D85846FDF726F9644A654BCDE90001AC
:10347000FCF7C7FF0022634BCDE90201FCF71AFFFE
:103480008046FDF7DFF811E05846FDF713F95B4A77
:103490005B4BCDE90001FCF7B4FF0022594BCDE9AD
:1034A0000201FCF7A8FF8046FDF7CCF8C0F5C77015
:1034B000554951F820A05046FDF792F80646534A68
:1034C000534BFCF79EFF0446FDF738F9AEE758462C
:1034D000FDF7F0F80446514A514BFDF7FFF844D28E
:1034E0005846FDF7E7F8454A454BCDE90201FCF7A0
:1034F00088FF804600221346FDF708F912D8584687
:10350000FDF7D8F83D4A3E4BCDE90001FCF779FFC5
:10351000804600223B4BFCF7CDFECDE90201FDF7D2
:1035200091F811E05846FDF7C5F8344A344BCDE91F
:103530000001FCF766FF80460022324BFCF75BFF80
:10354000CDE90201FDF77EF8A0F5C7702E4951F8CC
:1035500020A05046FDF744F806462C4A314BFCF7B4
:1035600050FF0446FDF7EAF860E75846FDF7A2F879
:103570008046224A224BFCF744FF00221346CDE945
:103580000201FDF7C3F812D85846FDF793F81B4A1D
:103590001B4BCDE90001FCF734FF80460022194B9C
:1035A000FCF788FECDE90201FDF74CF811E0584622
:1035B000FDF780F88046114A114BFCF722FF0022EC
:1035C000104BCDE90001FCF716FFCDE90201FDF734
:1035D00039F8C0F547700C4951F820A05046FCF767
:1035E000FFFF0646094A0F4BFCF70BFF0446FDF7A9
:1035F000A5F81BE7F4D64354FB21F93F9CA223B95D
:10360000FCAB5F400000E03F905100082D431CEBF5
:10361000E2361A3FEA2E4454FB210940320D337F33
:103620007CD91240E2361ABF70B5044625462E46B4
:103630000448A0EB6606354629462046FCF7CAFD3D
:1036400070BD0000865A375F2DE9F04F87B09AA011
:10365000FFF7ECF89E48006800287DD1002421E0A7
:103660002046FCF7BDFF9B4A9B4BCDE90001FCF7D0
:10367000C8FE06460022994BFCF735FF984A994B45
:10368000CDE90201FCF716FE8146FDF757F88046AA
:10369000424600219448006801F096FA022000F0AA
:1036A00099FD641CB4F5FA7FDADD00F027FE059081
:1036B0004FF4FA7421E02046FCF792FF8146854AD8
:1036C000854BFCF79EFE0022844BCDE90001FCF700
:1036D0000AFF0646824A834BFCF7ECFDCDE9020166
:1036E000FDF72CF88046424600217F48006801F033
:1036F0006BFA022000F06EFD641E002CDBDA00F095
:10370000FDFD049000221146104601F05DFAC8202C
:1037100000F060FD0598FCF7CDFF064632460B46EB
:1037200072A0FFF783F80498FCF7C4FF0646324600
:103730000B4673A0FFF77AF8DDE90410FCF744FDAF
:103740008146FCF7B7FF21F000410646FCF7F6FF83
:103750000546DDE9041000E067E0FDF70BF808D04E
:103760002846FCF7A7FF06466A4A6B4BFCF7B6FFF4
:103770000BD26AA0FFF75AF84FF400717248FDF7B8
:103780008FFE002007B0BDE8F08FDDE90410FCF7E4
:10379000F1FF07D26DA0FFF749F84FF0FF304C4919
:1037A000086005E071A0FFF741F801204849086072
:1037B00075A0FFF73BF878480068FCF703FF29463F
:1037C0000390FCF707FD8346FCF774FF0646414A69
:1037D000414BFCF710FE21F00041814600226F4B67
:1037E000FCF794FF1DD26EA0FFF720F82846FCF7E7
:1037F00061FF81464A460B4636483749FCF773FE5F
:103800000022664BCDE90201FCF754FD0646FCF7A9
:1038100019FF614908600846016867A0FFF706F8CC
:1038200006E067A0FFF702F802E067A0FEF7FEFFE0
:1038300000216B480068FCF79DFF38D1694A0021E0
:103840002948006801F0C0F94FF42F7000F0C2FC65
:1038500000F054FD81461E480068FCF7B3FE824626
:103860004946FCF7B7FC07464B4801683846FFF766
:10387000BBF80646FFF7A8F959490860142000F084
:10388000A9FC59A0FEF7D2FF55480068FCF712FFCB
:10389000064632460B465AA0FEF7C8FF00221146E4
:1038A000104601F091F9C82000F094FC02E056A007
:1038B000FEF7BCFF012065E74D4F543A20416C698B
:1038C000676E2073656E736F722E0D0A0000000024
:1038D0007C000020EA2E4454FB21194000407F4028
:1038E000320D337F7CD91240880000206D69645FFF
:1038F000616E676C653D252E34660D0A0000000080
:10390000656E645F616E676C653D252E34660D0AD9
:10391000000000007B14AE47E17A843F4D4F543ADB
:10392000204661696C656420746F206E6F746963F2
:1039300065206D6F76656D656E74206C6F6F70328B
:1039400032322E0D0A000000000C01404D4F543A57
:103950002073656E736F725F646972656374696FFB
:103960006E3D3D4343570D0A000000004D4F543A51
:103970002073656E736F725F646972656374696FDB
:103980006E3D3D43570D0A004D4F543A2050502094
:10399000636865636B3A20008C0000200000E03F04
:1039A0006661696C202D20657374696D617465644E
:1039B0002070703A0000000025640D0A000000002D
:1039C0004F4B210D0A0000004D4F543A20536B69B4
:1039D00070206469722063616C69622E0D0A0000B8
:1039E00078000020E4CB96404D4F543A205A65723F
:1039F0006F20656C65632E20616E676C653A000010
:103A0000252E34660D0A00004D4F543A20536B6941
:103A100070206F66667365742063616C69622E0D39
:103A20000A00000010B5044602230122214609487D
:103A3000FDF70EFB01210748FDF76BFB00BF0221DC
:103A40000448FDF7C9FA0028F9D00248FDF7C0FA8A
:103A500010BD0000002401402DE9F84F0446FFF797
:103A600099F881463F490968A9EB0100FCF7B3FDCD
:103A700005463D49FCF7AEFB82463A48C0F8009047
:103A800000215046FCF776FE05D94FF07C51504698
:103A9000FCF77AFE01D2DFF8D4A051463448006822
:103AA000FCF798FB0090FCF705FE05460E463148F2
:103AB00001682046FCF788FB0090FCF7FBFD21F035
:103AC000004107462A463346FCF720FE33D22948F8
:103AD00001682046FCF778FB00210090FCF74AFEC5
:103AE00002D24FF0FF300CE0224801682046FCF77C
:103AF0006BFB00210090FCF747FE01D2012000E0A3
:103B000000208046FCF75EFD0746194801683846EC
:103B1000FCF760FB06465146FCF75CFB0546154882
:103B200001682846FCF7FEFA124908601048006850
:103B30001149086004E00F48046000200E49086045
:103B40000E48D0F800B00E4801680A480068FEF739
:103B50004BFF05462A460021584601F035F85846E5
:103B6000BDE8F88F90000020BD3786356F12833A8C
:103B70009400002048000020500000208400002015
:103B80008C0000202DE9F84F04460D4621F000403E
:103B900000917349814211DC7249884201DC06D1EF
:103BA0002CB120462946BDE8F84FFEF7B8BE6E4856
:103BB000002DCCBF6D496E49BDE8F88F6D4981423B
:103BC00011DD6D498142D8BF4FF0FF366DDD2046D3
:103BD0002946FEF73BFE042808BFFEF7ABFE204651
:103BE0002946BDE8F88F6549654F25F000458142BB
:103BF00033DD6449814219DD002632464FF08043AF
:103C000020462946FCF756FB80468A46012220467C
:103C10002946FDF761F900223B46FCF7ECFB4246E2
:103C20005346FCF760FC04460D463EE001260022A8
:103C3000BA463B4620462946FCF73CFB80460F46E9
:103C40000022534620462946FCF7D5FB42463B4618
:103C5000FCF749FC04460D4627E04B4981421BDD39
:103C6000DFF828A102260022534620462946FCF709
:103C7000C8FB00223B46FCF71DFB80460F46002296
:103C8000534620462946FCF7B6FB42463B46FCF726
:103C90002AFC04460D4608E0032622462B46002057
:103CA0003B49FCF720FC04460D4622462B461046B5
:103CB0001946FCF7A6FB8B46824602460B46FCF7EC
:103CC000A0FB07460246334888460B460621784447
:103CD000FEF7D0FD52465B46FCF793FB82462E482A
:103CE0008B463A46434605217844FEF7C3FD3A46E3
:103CF0004346FCF786FB02460B46002E50465946CB
:103D00000CDAFCF7D7FA22462B46FCF77AFB01B017
:103D100022462B46BDE8F04FFCF770BBFCF7CAFA11
:103D200022462B46FCF76DFB1C4A7A4402EBC60385
:103D3000D3E90023FCF75FFB22462B46FCF75BFB35
:103D4000174A7A4402EBC603D3E90023FCF756FB7B
:103D5000009A002AB8BF81F00041BDE8F88F00004A
:103D6000000010440000F07F182D4454FB21F93F5F
:103D7000FB21F9BF0000DC3F0000203E0000F33FC4
:103D80000000F03F0000E63F008003400000F83FE5
:103D90000000F0BF4618000004180000A217000041
:103DA0006A1700002DE9F04D9446CCF1000423F091
:103DB00000464CEA0404524F46EAD4749A468846B8
:103DC00021F00042BC4206D8454240EA050442EADE
:103DD000D474BC4204D9BDE8F04D6246FEF7A2BDE2
:103DE000AAF14055A5F17F6555EA0C040BD00224D9
:103DF00004EAAA74434DDFF810E144EAD87452EAA9
:103E0000000B04D00CE0BDE8F04DFFF7BBBE002C6A
:103E100014BF012CBDE8F08D022C30D0032C32D021
:103E200056EA0C0B0AD0BE4220D1BA4209D126F084
:103E3000804622F080423346114617E000291ADB03
:103E400025E0DFF8C8B0FB44002C04BFDBE900012B
:103E5000BDE8F08D012C02BFDBE9000181F00041DB
:103E6000BDE8F08D022C0AD0032C0CD0BA4212D13E
:103E7000B8F1000F0BDA23482549BDE8F08D28463C
:103E80002449BDE8F08D28467146BDE8F08D1D48F7
:103E90002149BDE8F08D921B12153C2AC4BF194878
:103EA0001D490EDCBAF1000FBEBF12F13C0F00201D
:103EB000014606DB6246FCF716FB21F00041FFF7E6
:103EC00061FE002C08BFBDE8F08D012C04BF81F01D
:103ED0000041BDE8F08D114A114B022C07D0FCF7D0
:103EE0008AFA2A46BDE8F04D0A4BFCF784BAFCF783
:103EF00082FA2A46BDE8F04D064BFCF77FBA000077
:103F00000000F07F182D4454FB2109C0FE1600006C
:103F1000FB21F9BFFB210940FB21F93F075C14336A
:103F200026A6A13C30B583B00446FEF70BFD05463E
:103F30000020CDE90000024621466846FCF7C1FC9E
:103F40002846FEF715FDDDE9000103B030BD000095
:103F500070B53848008800F40040002868D0364822
:103F6000007850283AD006DC41282CD0482807D0C9
:103F7000492859D145E0542806D0562854D117E095
:103F80002EA0FEF753FC4FE02B48401CFFF7CAFF62
:103F90000446FCF7D3FB2D49086008460068FCF78F
:103FA00089FB044622460B4629A0FEF73FFC3BE076
:103FB0002A480068FCF77EFB044622460B4628A0F0
:103FC000FEF734FC30E029480068FCF773FB044638
:103FD00022460B4626A0FEF729FC25E01648401C89
:103FE000FFF7A0FF0446FCF7A9FB24490860086816
:103FF000FCF760FB044622460B4621A0FEF716FCA8
:1040000012E00D48401CFFF78DFF0446FCF796FBBD
:104010001A4948604868FCF74DFB044622460B46A7
:104020001AA0FEF703FC00BF00BF00200149088072
:1040300070BD00001C000020D000002048656C6CA2
:104040006F20576F726C64210D0A0000C8000020B9
:10405000543D252E34660D0A00000000500000205B
:1040600056656C3D252E32660D0A00004800002082
:10407000416E673D252E32660D0A000018020020B1
:10408000503D252E34660D0A00000000493D252EC6
:1040900034660D0A0000000070B586B005460C4677
:1040A000164601214FF40370FDF79EFE4FF40040C9
:1040B000FDF76EFE072D0CDC0120A84080B2ADF8A4
:1040C000000000208DF8030069463E48FDF714F912
:1040D0000DE0A5F108000121814088B2ADF8000093
:1040E00000208DF8030069463748FDF705F9072CD5
:1040F0000CDC0120A04080B2ADF8000000208DF85B
:10410000030069462F48FDF7F7F80DE0A4F1080019
:104110000121814088B2ADF8000000208DF8030035
:1041200069462948FDF7E8F8284886421CD0072C44
:104130000CDC0120A04080B2ADF8000000208DF81A
:10414000030069461F48FDF7D7F80DE0A4F1080009
:104150000121814088B2ADF8000000208DF80300F5
:1041600069461948FDF7C8F81948FCF7F9FE002020
:1041700001908DF808008DF809004FF4602003903D
:104180000020049001208DF8140001A91048FCF7CC
:1041900037FF01210E48FCF7D7FE0D48FCF7B4FFAE
:1041A00000BF0B48FCF721FF0028FAD10848FCF7B4
:1041B000BBFF00BF0648FCF701FF0028FAD106B09C
:1041C00070BD000000080140000C0140C7CFFFFF98
:1041D00000240140F0B50646FEF7DCFC054600BFB2
:1041E000FEF7D8FC0446AC4201D3671B02E0C5F1E0
:1041F000FF30071906EB4600C0EBC610B7EBC00F47
:10420000EED3F0BD2DE9F0410C480068FCF7DAF977
:1042100006460B4801680B480068FBF783FF07461A
:104220003146FBF7D7FF0546074801682846FBF7EC
:10423000CBFF0446FEF7C8FCBDE8F0818C000020EF
:1042400074000020480000207800002070B514465B
:104250001D460E46002814BF01210021314321F0E4
:104260000041C1F17F6101F1E041C90F16D1002C7D
:1042700014BF01210021294321F00041C1F17F61D8
:1042800001F1E041C90F09D11449B1EB460F08BF54
:1042900000281CD0690008BF002C18D03146FCF75C
:1042A000D7FB024640F2FF7030EA11500DD0F017F4
:1042B000B0EBE17F09D0084665F31E0084460B464B
:1042C00020466146FCF79AF80246104670BD012070
:1042D000FEF74EFBBDE87040FEF726BB0000E0FF96
:1042E00000BF054A128802F04002002AF9D0C2B28B
:1042F000014B1B1D1A807047003801402DE9F04F1B
:1043000087B000F043FA044648480068A4EB00096F
:1043100047480068FCF764F90746464A464BFCF7F5
:1043200070F805460E464846FCF75AF921F0004160
:1043300082462A463346FCF7E9F919D23F4800681D
:10434000FCF7B8F982468B46B9F1000F02DD3C4913
:104350003C4801E03A493C480F463A46034650463D
:104360005946FBF7A7FF0546FCF7E8F93349086013
:104370002E48046031480068FCF79CF90546334A32
:10438000334BFCF7C3F910D800202C4908603148A2
:104390000068FCF78FF907462C4A2D4BFCF72BF8E9
:1043A0000546FCF7CBF92B49086024480068FCF768
:1043B00081F90546254A284BFCF790F910D80020D2
:1043C0001E49086023480068FCF774F905461F4A37
:1043D0001F4BFBF76FFF0746FCF7B0F91D4908605C
:1043E00013480068FCF7EEF802902046FCF7EAF864
:1043F00001900299FBF720FF0390FCF75BF905465B
:104400000F4A114BFBF7FDFFCDE904010B48006893
:10441000FCF750F90746DDE90423FBF74BFF824622
:10442000FCF78CF907B0BDE8F08F00003C000020DD
:10443000340000209A9999999999E93F3800002011
:10444000EA2E4454FB2119C0FB211940D1954A7032
:104450002F8BB840400000202F8BB8C02DE9F14FC2
:104460008AB04FF07E50059002A800F039F902A8FA
:1044700007C806AB07C300210898FCF77BF91DD1DC
:10448000069C0798FCF716F90746454A454BFBF78B
:10449000B8FF82468B460698FCF70CF90746404A5F
:1044A000414BFBF7AEFF52465B46CDE90201FBF7FD
:1044B00001FF0546FCF742F9814634E0DDE90601DB
:1044C000FBF730FE07460899FBF72CFE06463749F6
:1044D000FBF780FE804641460698FBF775FE0546D1
:1044E00041460798FBF770FE04902C460498FCF7B1
:1044F000E1F806462A4A2B4BFBF783FFCDE9020180
:104500002846FCF7D7F80646254A274BFBF779FFE4
:10451000CDE90001DDE90223FBF7CCFE8246FCF782
:104520000DF9814600BF00210A98FCF723F91FD03E
:104530000A98FEF72DFF82462146FBF74BFE074601
:104540000A98FEF71BFA82464946FBF743FE80466F
:104550003946FBF739FE06460021FCF715F901D272
:10456000012001E04FF0FF300546FCF72BF80590E5
:1045700049464846FBF72EFE074621462046FBF7F4
:1045800029FE80463946FBF7CDFD0646FFF74CF87D
:1045900005460599FBF71EFE0BB0BDE8F08F000045
:1045A00047409045A779F23FA779E23FABAAAA3EE0
:1045B0002DE9F04F8FB00646894604A800F090F828
:1045C00004A807C80BAB07C300210D98FCF7D2F86D
:1045D0001DD10B9C0C98FCF76DF807463C4A3D4BEF
:1045E000FBF70FFFCDE904010B98FCF763F80746D2
:1045F000374A394BFBF705FFCDE90201DDE904231A
:10460000FBF758FE8246FCF799F8054635E0DDE9F0
:104610000B01FBF787FD80460D99FBF783FD0746ED
:104620002E49FBF7D7FD834659460B98FBF7CCFD87
:10463000824659460C98FBF7C7FD069054460698EB
:10464000FCF738F80746224A224BFBF7DAFECDE9A1
:1046500002015046FCF72EF807461D4A1E4BFBF799
:10466000D0FECDE90001DDE90223FBF723FECDE911
:104670000401FCF763F8054600BF4846FEF77EF9E3
:104680000A904846FEF784FE099028460999FBF7F0
:10469000A1FD074620460A99FBF79CFD8046394656
:1046A000FBF740FD079020460999FBF793FD07466D
:1046B00028460A99FBF78EFD80463946FBF784FDB4
:1046C0000890DDE90701C6E900010FB0BDE8F08FF1
:1046D00047409045A779F23FA779E23FABAAAA3EAF
:1046E000FEB504461F490878FEF730FE06461E4810
:1046F00001683046FBF768FD05461C4801682846FE
:10470000FBF768FD00901A490878FEF71FFE064681
:10471000184801683046FBF757FD05461648016802
:104720002846FBF757FD0190144800681449884259
:1047300001D100200FE011490878FEF707FE064678
:10474000104801683046FBF73FFD05460E480168FA
:104750002846FBF73FFD02909DE8070084E807002C
:10476000FEBD00009C000020B4000020A800002036
:10477000A0000020B8000020AC000020A400002011
:10478000C7CFFFFFBC000020B000002010B50348D9
:10479000FCF776FF0446204610BD000000540040A0
:1047A0002DE9F047FEF7F6F9054616490968681A3B
:1047B000FBF711FF07461449FBF70CFD06461148AD
:1047C000056000213046FBF7D5FF08D93046FBF7DE
:1047D00071FF074600220D4BFBF798FF00D20C4EED
:1047E000FFF78CFD04460B4801682046FBF7ECFC04
:1047F00007463146FBF720FD8146064804604846DF
:10480000BDE8F08744000020BD3786350000E03F5A
:104810006F12833A400000201CB53A480078042803
:1048200003D038480078032800D11CBD00F0C0FB3D
:1048300035490860FFF7E6FC3449086034480078E1
:1048400020B1012803D002284DD11DE04FE02F48B0
:104850000068FFF703FE2F494860084641682E486C
:10486000FDF736F82B494860084641682B48006838
:10487000FBF7AAFC044621462948FDF7CDF9294952
:1048800048600020086032E0204801686846FFF771
:104890008FFE2048DDE9001206C0083841681E4836
:1048A000FDF716F81B494860084601681E48FDF7E9
:1048B0000FF8184908600846416818480068FBF777
:1048C00083FC044621461648FDF7A6F915494860C1
:1048D0001048006880F0004421461448FDF79CF918
:1048E0001049086003E012A0FDF7A0FF00BF00BF61
:1048F0000C4A11685068054A126800F065F900BF5B
:1049000093E7000071000020480000204C000020C8
:104910007000002068000020600200205400002089
:10492000D0010020600000206C020020F401002073
:104930004D4F543A206E6F20746F7271756520630D
:104940006F6E74726F6C2073656C6563746564213F
:104950000000000008B5FCF787FC4FF4E13000F0E0
:1049600079FBFDF777FB00F051FB4FF47A70FFF70E
:1049700031FCFCF7F7FF354804230322344900904B
:104980003448FCF7FDFEFCF76BFFFCF77BFFFDF7FF
:10499000FBF83148314908600C20314908604FF07C
:1049A000804030490860304830490860304831491B
:1049B000086027483049086000203049087001200D
:1049C0002F4908702F4830490860002048602D4862
:1049D0002E490860002048602D482E4908604FF09D
:1049E0007E50486022482C49086019482949C8600F
:1049F0002A482B49086000202A490860FCF7FCFF80
:104A000000210846FDF74EF827A0FDF70FFF1CE038
:104A100000F008FB2849096808442749086008464F
:104A200000682649884208DB0020234908602448A2
:104A3000C06880F400502249C8601A48006800F03D
:104A400041F8FFF7E9FEFFF783FAE1E7C7CFFFFF81
:104A5000000048426F12833A00004041800000206D
:104A60008C000020880000200000C040840000204E
:104A70000000A04194000020980000207000002059
:104A8000710000209A99193FF4010020D001002004
:104A9000CDCCCC3D180200203C0200200AD7233C9C
:104AA00078020020C80000204D6F746F722072657C
:104AB0006164792E0D0A0000C400002020A10700C7
:104AC0000010014070B5044600F08AFA34490860CD
:104AD00034480078052860D2DFE800F003320C4B40
:104AE00055003148007810B93048446001E0304842
:104AF000046052E02F4804602F4801682D48006888
:104B0000FBF762FB054629462C48FDF785F82C4942
:104B10000860234801682A480068FBF755FB0546F2
:104B200029462848FDF778F8214908601E48007892
:104B300028B9084600681D494860002008602CE03C
:104B40001F480460164801681D480068FBF73CFBDD
:104B5000054629461B48FDF75FF8154908601248CD
:104B6000007828B9084600681049486000200860AD
:104B700013E013480460006800F0BCFA0B49486079
:104B80000020086009E00B4804600068FEF764FF3D
:104B9000064948600020086000BF00BF70BD0000EB
:104BA00050000020710000207000002060000020F4
:104BB000540000205C000020480000203C0200203F
:104BC00058000020180200202DE9F74F96B08246C9
:104BD0008B4600215846FBF7CDFD38D05146504654
:104BE000FBF7F8FA594611905846FBF7F3FA109084
:104BF0001199FBF797FA1290FEF716FD1390E34810
:104C000001681398FBF718FB80465846FBF752FDE6
:104C1000CDE90A015046FBF74DFDCDE90801DDE97C
:104C20000A23FFF7BFF8CDE90E011898FBF742FD04
:104C3000CDE90C01DDE90E23FBF73CFBCDE91001CA
:104C4000FBF77CFD1390FDF7BFFF189016E0CF48EF
:104C500001685046FBF7F0FA80461898FBF72AFDEA
:104C6000CB4ACC4BCDE90E01FBF724FBCDE910017B
:104C7000FBF764FD1390FDF7A7FF18901898FBF75A
:104C800019FDC54AC54BCDE90E01FBF72CFC0022EE
:104C9000C34BCDE91001FBF70DFBCDE91201FBF78A
:104CA000F0FC07464046FBF705FDCDE910011898DA
:104CB000FBF700FDCDE906013846FBF7A2FCB64A3A
:104CC000B64BCDE90201FBF79CFBCDE90401DDE920
:104CD0000623FBF790FBCDE90801FBF72FFD0A90B7
:104CE000FEF756FB0B90FBF7E5FCAE4AAE4BCDE969
:104CF0000C01FBF786FBCDE90E01DDE91023FBF784
:104D000080FBCDE91201FBF719FD81464046FBF718
:104D1000D1FCCDE910013846FBF773FC0022A04B13
:104D2000CDE90001FBF767FB9B4A9C4BCDE90201F3
:104D3000FBF767FBCDE906011898FBF7BBFCCDE953
:104D40000401DDE90623FBF756FBCDE90801FBF77B
:104D5000F5FC0A90FEF71CFB0B90FBF7ABFC914AAD
:104D6000914BCDE90C01FBF74CFBCDE90E01DDE9E0
:104D70001023FBF746FBCDE91201FBF7DFFC149093
:104D800049464FF07E50FBF71FFA13901499FBF73A
:104D90001BFA1590072F7DD2DFE807F0C6042444E4
:104DA0006486A6004FF080411598FBF745FA1390F2
:104DB00048461499FBF7B6F912901399FBF7B2F92C
:104DC00004464FF080411598FBF736FA139014997A
:104DD000FBF7A8F905464FF080411598FBF72CFA30
:104DE0000646A5E04FF080411598FBF725FA4946A5
:104DF0001390FBF797F904464FF080411598FBF7A5
:104E00001BFA139048461499FBF78CF912901399EA
:104E1000FBF788F905464FF080411598FBF70CFA2F
:104E2000064685E04FF080411598FBF705FA0446E9
:104E30004FF080411598FBF7FFF9139048461499FD
:104E4000FBF770F912901399FBF76CF905464FF0D8
:104E500080411598FBF7F0F913901499FBF762F96C
:104E6000064665E04FF080411598FBF7E5F90446EA
:104E70004FF080411598FBF7DFF949461390FBF797
:104E800051F905464FF080411598FBF7D5F913907D
:104E9000484600E048E01499FBF744F91290139952
:104EA000FBF740F9064643E04FF080411598FBF7C9
:104EB000C3F913901499FBF735F904464FF080417C
:104EC0001598FBF7B9F905464FF080411598FBF7A7
:104ED000B3F9139048461499FBF724F912901399EB
:104EE000FBF720F9064623E04FF080411598FBF7C9
:104EF000A3F9139048461499FBF714F912901399EB
:104F0000FBF710F904464FF080411598FBF794F930
:104F100005464FF080411598FBF78EF949461390EE
:104F2000FBF700F9064603E000240025002600BF39
:104F300000BF1E492046FBF74DF91290FBF76EFBB0
:104F400080B2014613904FF08040FDF7FEFA1749FA
:104F50002846FBF73FF91290FBF760FB80B2014651
:104F600013904FF08040FDF7F2FA10493046FBF7FE
:104F700031F91290FBF752FB80B2014613904FF0CB
:104F80008040FDF7E6FA19B0BDE8F08F8000002000
:104F9000F4D64354FB21F93F40AF2D3852C1F03FC6
:104FA0000000F03F6B6058E87AB6FB3F0000B44465
:104FB00070B5FFF7A3F9054607480068FBF702FB49
:104FC00006462946FBF706F90446044801682046D0
:104FD000FBF7FAF870BD00007C0000207400002090
:104FE00070B5FFF7DDFB064631460648FCF770FC5E
:104FF000044605480068FBF7E5FA05462146FBF73D
:10500000E9F870BD780200207C00002004484FF0D1
:10501000E021486100208861072008617047000096
:105020004019010070B5FDF7B5FD04460848006859
:10503000844203D306480068251A04E00448006847
:10504000C0F1FF30051902480460284670BD000019
:10505000C000002010B586B00446012144F20400CF
:10506000FCF7C2FE4FF40070ADF8140003208DF879
:10507000160018208DF8170005A91C48FCF73CF90C
:105080004FF48060ADF8140004208DF8170005A9D6
:105090001648FCF731F925208DF8000003208DF823
:1050A00001008DF8020001208DF803006846FCF72E
:1050B00033FD01940020ADF80800ADF80A00ADF80A
:1050C0000C00ADF810000C20ADF80E0001A9084846
:1050D000FDF73AFB012240F225510548FDF70EFB92
:1050E00001210348FDF7D4FA06B010BD00080140C5
:1050F000003801402DE9F0470446FDF74BFD054619
:105100001C490968681AFBF766FA80461A49FBF7DA
:1051100061F806461748056000213046FBF72AFB78
:1051200005D94FF07C513046FBF72EFB00D2134ED1
:1051300031462046FBF74EF8814611480168484643
:10514000FAF7F0FF8046FDF73FFD0D4908600D4876
:1051500004600D4807680D48016809480068FDF7BC
:1051600043FC8046424600213846FFF72DFD384675
:10517000BDE8F08790000020BD3786356F12833A76
:105180004800002050000020840000208C000020F7
:10519000000000004F0000009E000000ED00000035
:1051A0003C0100008B010000D90100002802000032
:1051B00077020000C6020000150300006303000030
:1051C000B2030000000400004F0400009D04000032
:1051D000EC0400003A05000088050000D605000038
:1051E0002406000072060000C00600000E07000042
:1051F0005B070000A9070000F60700004308000055
:1052000090080000DD0800002A090000770900006E
:10521000C30900000F0A00005C0A0000A80A000091
:10522000F40A00003F0B00008B0B0000D60B0000BF
:10523000210C00006C0C0000B70C0000010D0000F8
:105240004C0D0000960D0000E00D0000290E00003E
:10525000730E0000BC0E0000050F00004E0F000092
:10526000960F0000DF0F0000271000006E100000F6
:10527000B6100000FD100000441100008B1100006A
:10528000D1110000171200005D120000A2120000F0
:10529000E81200002D13000071130000B613000087
:1052A000F91300003D14000081140000C414000034
:1052B00006150000491500008B150000CC150000F4
:1052C0000E1600004F1600008F160000CF160000CB
:1052D0000F1700004F1700008E170000CD170000B9
:1052E0000B1800004918000087180000C4180000BF
:1052F000011900003D19000079190000B5190000DE
:10530000F01900002B1A0000661A00009F1A000016
:10531000D91A0000121B00004B1B0000831B000069
:10532000BB1B0000F21B0000291C0000601C0000D9
:10533000961C0000CB1C0000001D0000351D000065
:10534000691D00009D1D0000D01D0000031E00000F
:10535000351E0000671E0000981E0000C91E0000D8
:10536000FA1E0000291F0000591F0000881F0000BE
:10537000B61F0000E41F0000112000003E200000C6
:105380006A20000096200000C1200000EC200000F0
:105390001621000040210000692100009221000038
:1053A000BA210000E1210000082200002F220000A5
:1053B000552200007A2200009F220000C322000034
:1053C000E72200000A2300002D2300004F230000E5
:1053D0007023000091230000B2230000D1230000BD
:1053E000F12300000F2400002D2400004B240000B6
:1053F0006824000084240000A0240000BB240000D6
:10540000D5240000EF24000009250000222500001B
:105410003A25000052250000692500007F25000084
:1054200095250000AA250000BF250000D325000017
:10543000E6250000F92500000B2600001D260000CF
:105440002E2600003E2600004E2600005D260000AD
:105450006C2600007A2600008726000094260000B3
:10546000A0260000AB260000B6260000C0260000E3
:10547000CA260000D3260000DB260000E326000039
:10548000EA260000F1260000F7260000FC260000B6
:105490000127000005270000082700000B27000057
:1054A0000D2700000F270000102700001027000024
:1054B0004FBB610567ACDD3F182D4454FB21E93F2C
:1054C0009BF681D20B73EF3F182D4454FB21F93F1B
:1054D000E2652F227F2B7A3C075C143326A6813CA1
:1054E000BDCBF07A8807703C075C143326A6913C4C
:1054F000C4EB98999999C9BF711623FEC671BCBFB8
:105500006D9A74AFF2B0B3BF9AFDDE522DDEADBF1F
:105510002F6C6A2C44B4A2BF0D5555555555D53F37
:10552000FF8300922449C23F6E204CC5CD45B73F52
:10553000513DD0A0660DB13FEB0D76244B7BA93FCA
:1055400011DA22E33AAD903F0000000000000000B5
:10555000DDDDDDDDDCBBBBDDDDDDDDDDDDDDDDDDC0
:105560009888888888888888777777777788888800
:105570008555555666666666666666666668888898
:105580008333333222222222222222222228888D91
:10559000B055000800000020D0000000502900088D
:1055A00080560008D0000020B805000060290008DF
:1055B00000000000010203040102030406070809B9
:1055C00002040608000000000000000000000000C7
:1055D00000000000000000000000000000000000CB
:1055E00000000000000000000000000000000000BB
:1055F00000000000000000000000000000000000AB
:10560000000000000000000000000000000000009A
:10561000000000000000000000000000000000008A
:10562000000000000000000000000000000000007A
:10563000000000000000000000000000000000006A
:10564000000000000000000000000000000000005A
:10565000000000000000000000000000000000004A
:10566000000000000000000000000000000000003A
:10567000000000000000000000000000000000002A
:04000005080000ED02
:00000001FF
