:020000040800F2
:100000008806002001010008090100080B01000812
:100010000D0100080F010008110100080000000098
:1000200000000000000000000000000013010008B4
:10003000150100080000000017010008911C0008CD
:100040001B0100081B0100081B0100081B01000820
:100050001B0100081B0100081B0100081B01000810
:100060001B0100081B0100081B0100081B01000800
:100070001B0100081B0100081B0100081B010008F0
:100080001B0100081B0100081B0100081B010008E0
:100090001B0100081B0100081B0100081B010008D0
:1000A0001B0100081B0100081B0100081B010008C0
:1000B0001B0100081B0100081B0100081B010008B0
:1000C0001B0100081B0100081B0100081B010008A0
:1000D0001B010008A92200081B0100081B010008E1
:1000E0001B0100081B0100081B010008DFF80CD0F1
:1000F00000F00AFD00480047C544000888060020BB
:100100000648804706480047FEE7FEE7FEE7FEE7B1
:10011000FEE7FEE7FEE7FEE7FEE7FEE7A11C0008BC
:10012000ED000008F0B480EA0102D40F4200B2EB07
:10013000410F02D20246084611464A0042D0C30D82
:10014000DDB2C1F3C752AD1A202D35DAC1F3160165
:1001500041F4000204B15242C5F1200602FA06F150
:100160002A411044B3EBD05F23D0C4B1012DA0EBE2
:10017000C35009DCF0BC4FF0004202EAC352DBB2CC
:1001800000F5000000F0D9BB400000F1807000EBEA
:10019000C350A0F1807040EAD170490009E04908DD
:1001A00041EAC071A0EBC35000F50000400800EB2D
:1001B000C350F0BC00F0B8BB6142012202EB410128
:1001C000001BF6E7F0BC704781F00041AAE780F021
:1001D0000040A7E780EA010210B502F000434000AA
:1001E00022D04A001FD0010E01EB1261C0F356006D
:1001F000C2F3560240F4000042F40002A0FB0220C9
:1002000000047F39140400D0401C50EA124001D48D
:100210004000491EC2B20C0604EBD010401C40083E
:10022000802A02D003E0002010BD20F00100002948
:1002300000DA0020184310BD30B480EA010202F059
:10024000004530F0004221F0004013D090B1C30DC2
:10025000D40DC2F31601C0F31600E41A41F40001F4
:1002600040F400027D34914201D3641C00E0490057
:10027000002C02DA30BC002070474FF4000000234D
:10028000914201D3891A034340084FEA4101F7D153
:1002900051B1914202D14FF0004105E002D24FF03E
:1002A000010101E06FF0010103EBC450284430BCB0
:1002B00000F03ABB2DE9FE4F804681EA0300C00FF3
:1002C0000C46009021F0004123F00045B8EB0200FD
:1002D000A94105D24046214690461C460B4602469F
:1002E00023F00040104347D0270DC7F30A00C3F3A3
:1002F0000A510290401A019040286BDAC3F31300B0
:1003000040F4801B0098924620B10023D2EB030AF0
:1003100063EB0B0B01985946C0F14002504600F0C8
:1003200084FA06460D4650465946019A00F09CFA5A
:1003300010EB08006141002487EA115284EAE77358
:100340001A4340D0009A62B3019A012A4FEA075239
:1003500015DC001B61EB02014FF0004202EA07527C
:10036000CDE90042001C41F5801132462B4600F0D9
:1003700021FB03B0BDE8F08F40462146F9E7001BA2
:1003800061EB0201001C41F5801300185B4120184D
:10039000A2F5001747EB030140EAD570B6196D418D
:1003A00011E06D084FEA360645EAC0754FEA07527C
:1003B000001B61EB0201001C41F5801149084FEA66
:1003C00030000019514132462B4603B0BDE8F04FD2
:1003D00000F0E1BA0098012240000023D0EB0202B5
:1003E00063EBE073009821464FEAE074B8EB00003D
:1003F00061EB0401E9E783F000435BE781F0004132
:1004000058E72DE9FE4F81EA030404F0004421F08F
:10041000004100944FF0000B23F0004350EA010428
:100420005ED052EA03045BD0C3F30A54C1F30A5509
:100430002C44A4F2F3340194A0FB0254C1F3130141
:1004400041F48011C3F3130343F4801301FB02440E
:1004500000FB034E840A970A44EA815447EA835713
:10046000A4FB076802958D0A05FB07854FEA932CCC
:1004700004FB0C542705029D4FEA065847EA16373D
:10048000B5EB08056EEB070C870E920E47EA811755
:1004900042EA8312A7FB0201B6EB0B0164EB0004F6
:1004A0002B0D43EA0C335E1844EB1C50DA465146E0
:1004B000E7FB0201C5F313044FEA0B3343EA14537D
:1004C0004FEA0432019C43EA0603A4F10C040294AF
:1004D000009CCDE900B400F06DFA03B0BDE8F08FE8
:1004E00000200146F9E72DE9F04D81EA030404F00C
:1004F000004B21F0004514464FF0000A23F0004164
:1005000050EA050220D054EA01021DD0C5F30A5773
:100510000246C5F31303C1F31300C1F30A5640F4B6
:10052000801543F48013A7EB0608101BD64608F28B
:10053000FD3873EB050002D308F1010801E09218C1
:100540005B41B8F1000F03DA00200146BDE8F08DF1
:1005500000204FF48011064684460EE0171B73EB13
:10056000050705D3121B63EB050306434CEA010C98
:1005700049084FEA300092185B4150EA0107EDD17B
:1005800052EA030012D082EA040083EA050108431C
:1005900005D0101BAB4106D20122002306E0002249
:1005A0004FF0004302E06FF0010253101AEB060017
:1005B0004CEB085110EB0A0041EB0B01BDE8F04D8C
:1005C00000F0E9B9C10F80EAE0700844CA07962339
:1005D000002100F0B2B996230022114600F0ADB917
:1005E0000EB5C10F80EAE0700844CA07002140F24E
:1005F00033438DE80E000A460B4600F0DBF903B0EA
:1006000000BD0EB540F2334102910021CDE9001149
:100610000A460B4600F0CEF903B000BD20F00040C2
:10062000C10DC0F3160040F400007F2901DA00205C
:100630007047962903DCC1F19601C840704796398E
:100640008840704770B5C1F30A5201F0004500249C
:10065000C1F3130140F2FF3341F480119A4201DAF1
:10066000002070BD40F233439A42A2F2334203DCD1
:10067000524200F0E9F800E090402C43F1D04042B3
:1006800070BDC1F30A5210B5C1F3130140F2FF333C
:1006900041F480119A4201DA002010BD40F2334348
:1006A0009A42A2F2334203DC524200F0CDF810BD70
:1006B000904010BD00F0004230F000400AD0C10D63
:1006C00001F56071C0F3160042EA0151C20840070B
:1006D00011437047002001467047000030B5041EEA
:1006E00071F1000404DB4FF00044404264EB01016F
:1006F000141E73F1000405DB1C464FF00043524208
:1007000063EB04038B4208BF824230BD30B5041E48
:1007100071F1000404DB4FF00044404264EB01013E
:10072000141E73F1000405DB1C464FF000435242D7
:1007300063EB0403994208BF904230BD01F00043CF
:1007400030B421F0004150EA010206D00A0DA2F5B2
:100750006072C1F31301002A02DC30BC0020704734
:10076000440F44EAC104C100E01830BC00EBC250A1
:1007700000F0DAB8002801DBC0F10040002901DBFD
:10078000C1F1004181427047002801DBC0F1004007
:10079000002901DBC1F100418842704730B50B46AA
:1007A000014600202022012409E021FA02F59D42A1
:1007B00005D303FA02F5491B04FA02F52844151E75
:1007C000A2F10102F1DC30BD2DE9F05F0546002009
:1007D00092469B4688460646814640241BE02846B2
:1007E00041464746224600F02FF853465A46C01A63
:1007F000914110D311461846224600F016F82D1AE2
:1008000067EB01084F4622460120002100F00DF859
:1008100017EB00094E41201EA4F10104DFDC48461D
:1008200031462A464346BDE8F09F202A04DB203AA1
:1008300000FA02F1002070479140C2F1200320FA33
:1008400003F3194390407047202A04DB203A21FA31
:1008500002F00021704721FA02F3D040C2F12002D9
:100860009140084319467047202A06DBCB17203AEF
:1008700041FA02F043EAE07306E041FA02F3D040A5
:10088000C2F1200291400843194670470FB400237B
:1008900000B589B00CA900910B996FF00042CB60B4
:1008A0001E4B06931E4B07930423CDE901321D4ACC
:1008B000089202466B46002000F0D2F909B05DF8BC
:1008C00014FB70B586B006464FF0FF300091CDE9BD
:1008D0000101002015460C4604903246694604A8E2
:1008E000FFF7D4FF02460498211825B108B1084645
:1008F00000E020462860049800280DD0002A02DD80
:100900000098884208D0081B0094CDE901043246C3
:10091000694604A8FFF7BAFF06B070BD990E00083B
:10092000B70E00082D0B00080029A8BF7047401C17
:10093000490008BF20F00100704710B4B0FA80FCF5
:1009400000FA0CF050EA010404BF10BC704749B132
:10095000CCF1200421FA04F411FA0CF118BF0121A2
:1009600021430843A3EB0C01CB1D4FEA00614FEA82
:10097000102042BF002010BC704700EBC350104451
:100980000029A4BF10BC7047401C490008BF20F0DC
:10099000010010BC704710B5141E73F1000408DA92
:1009A000401C41F1000192185B411A4301D120F033
:1009B000010010BD2DE9F04D92469B4611B1B1FAF0
:1009C00081F202E0B0FA80F220329046FFF72DFF6C
:1009D00004460F4640EA0A0041EA0B0153465A46D4
:1009E000084313D0114653EA010019D0C8F1400260
:1009F0005046FFF729FF05460E46504659464246E7
:100A0000FFF713FF084305D0012004E020463946D4
:100A1000BDE8F08D0020054346EAE0762C433743DD
:100A20000A986305E40AA0EB08000022FD0A44EAE4
:100A300047540A3002D500200146E9E701051019A4
:100A40006941DDE9084500196941BDE8F04DA2E7BB
:100A50002DE9FE4FC3F30A5701F000450024C1F30E
:100A60000A56C3F31303C1F3130143F4801312EBCB
:100A7000020AA64641F48011009543EB030CA7F14E
:100A8000010B16E0B0EB0A0061EB0C01071E71F1DF
:100A9000000707DA4FF00008D0EB080085F00045AA
:100AA00068EB0101171A73EB0107EBD3761E0018F0
:100AB00049415E45F6DA50EA010209D0CDE900E588
:100AC000002213460296FFF775FF03B0BDE8F08FD2
:100AD00020460099F9E7C1F30A52C1F3130140F22D
:100AE000FF3341F480119A4202DA00200146704738
:100AF00040F233439A42A2F2334202DC5242FFF701
:100B0000A3BEFFF792BE0000064C074D06E0E0686A
:100B100040F0010394E8070098471034AC42F6D344
:100B2000FFF7E8FAE850000808510008C0B24FF497
:100B3000F05100F0E9B900002DE9FF4F087883B0CB
:100B40009946FF2805D0491C2D2804D000240020F8
:100B500008E000200BE00124F9E700EB800003EB44
:100B60004000491C0B78FF2BF7D104B14042002311
:100B70000293147819461D462D2C01D02B2C04D13C
:100B8000521C2D2C13D000240294AA461478FF2C5A
:100B90000FD00A25A3FB057801FB05814FF0000C5F
:100BA00003FB0C11521CE3194AEB0101EEE701248F
:100BB000EAE7814453EA010002D019F5C87F06DA5A
:100BC00003980021C0E9001107B0BDE8F08F0025AF
:100BD000AE4E2F46DFF8B882184600F0A9F9CDE9ED
:100BE0000001B9F1000002DAC9F1000400E0044696
:100BF0000023A74A1AEB030B42EB045A12E0E0076A
:100C000007D02A46334638464146FFF7FAFB0746E7
:100C100088462A46334610461946FFF7F2FB05463A
:100C20000E466410002CEAD1DDE90001B9F1000F95
:100C30005A46534606DAFFF756FC3A464346FFF754
:100C400052FC05E0FFF7DDFB3A464346FFF7D9FBD0
:100C5000029A0AB181F00041039AC2E90001B3E7A8
:100C60002DE9FF4F1F468DB0D7E901464FF0FF3801
:100C70002E2045464FF000090B90B9696D1C0E9867
:100C80008847396A824688470028F6D1BAF1FF3F83
:100C90000AD024F4D064002E11DDBAF12B0F08D055
:100CA000BAF12D0F0BD102E0404611B08DE744F4AC
:100CB0008064B9696D1C0E9888478246761E694625
:100CC000600501D52D2000E02B208DF8000001F1FA
:100CD000010B0DF1200809E0B9696D1C0E988847D9
:100CE00082460F9844F40074761E0560002E02DDE3
:100CF000BAF1300FF0D00B998A453ED144F0800410
:100D000006E00F99681CA9F1010944F40074086019
:100D1000B9696D1C761E0E98884782463028F0D03F
:100D20002BE00B998A4505D1200603D444F08004BA
:100D3000761E18E0504601F07BFD08B30DF113015B
:100D4000761E44F400748B4508D2AAF130000BF8EB
:100D5000010B200607D5A9F1010003E0200602D40B
:100D600009F101008146A00502D50F99681C0860B1
:100D7000B9696D1C0E9888478246002ED1DC53E07D
:100D8000002E51DDBAF1650F02D0BAF1450F4BD1FB
:100D9000A00549D5B9696D1C24F44074761E0E98DF
:100DA00088478246002E0CDD2B2804D0BAF12D0F87
:100DB00007D144F48074B9696D1C0E988847824647
:100DC000761EE00501D52D2100E02B2108F8011B3E
:100DD000CDF82C8021E00DF12901761E44F4007439
:100DE00088450CD2AAF1300010F0FF0088F800000E
:100DF00002D10B99884509D908F1010806E0E00500
:100E000001D5244801E042F20F708146B9696D1C9A
:100E10000E98884782460F980560002E04DD5046E4
:100E200001F006FD0028D6D1F9690E988847FF2009
:100E30008BF8000088F800000020069007904B46D1
:100E40006A4608A906A8FFF777FEA00502D46FF04E
:100E500001002AE714F0240F0AD0E00714D1DDE9DD
:100E600006123868031D3B600068C0E900120BE001
:100E7000DDE90601FFF762FC0146E00704D13868AE
:100E8000021D3A600068016028460EE70000144029
:100E90000000F03FF1D8FFFF426842B1016811F84D
:100EA000013B23B1521EC0E90012184670470121D0
:100EB000C160881E704742685AB1C368016843B96F
:100EC00083688B4205D0491E521CC0E900120020E5
:100ED00070474FF0FF30704770B521F00043034377
:100EE0000CD0C1F30A550024D5EB040564EB0403D0
:100EF000D617AD1AB34102DB0020014670BD2018A1
:100F000041EB025170BD00007F2801D9002208E0AA
:100F1000064A02EB5002C007127800D1120902F013
:100F20000F0201209040084070470000A8500008C0
:100F30000EB540F2334202920022CDE90022134660
:100F4000FFF738FD03B000BD0146C86C80B27047A2
:100F50000246002013680B400BB1012000E0002086
:100F60007047F0B504460D4600200021092D11DD23
:100F7000E068A5F10A0606EB4607072606FA07F120
:100F80008843A5F10A0606EB460603FA06F1084374
:100F9000E0600CE0206905EB4507072606FA07F13B
:100FA000884305EB450603FA06F108432061072A4A
:100FB0000FDA606B561E06EB86071F2606FA07F14E
:100FC0008843561E06EB860605FA06F10843606361
:100FD00022E00D2A0FDA206BD61F06EB86071F26AC
:100FE00006FA07F18843D61F06EB860605FA06F1D6
:100FF0000843206310E0E06AA2F10D0606EB8607C5
:101000001F2606FA07F18843A2F10D0606EB8606B5
:1010100005FA06F10843E062F0BD21B1826842F4AE
:10102000A002826003E0826822F4A002826070471E
:1010300008B501211D2000F02DFD01211C4800F004
:10104000CBF84FF40050ADF8000010208DF80300ED
:1010500001208DF802006946164800F031F84FF47F
:101060000051144800F000F91020ADF800008DF890
:10107000030001208DF8020069460F4800F020F8B7
:1010800010210D4800F0F0F84FF44060ADF800007A
:1010900010208DF8030001208DF8020069460748F2
:1010A00000F00EF84FF44061044800F0DFF808BD8E
:1010B000000230000010014000080140000C014017
:1010C0002DE9F041024600250026002000230024DF
:1010D000002791F803C00CF00F0591F803C00CF045
:1010E000100CBCF1000F03D091F802C04CEA0505CA
:1010F00091F800C0BCF1000F31D0146800202BE043
:101100004FF0010C0CFA00F3B1F800C00CEA030632
:101110009E4220D183004FF00F0C0CFA03F7BC4322
:1011200005FA03FC4CEA040491F803C0BCF1280F53
:1011300006D14FF0010C0CFA00FCC2F814C00AE012
:1011400091F803C0BCF1480F05D14FF0010C0CFA27
:1011500000FCC2F810C0401C0828D1D31460B1F8BC
:1011600000C0BCF1FF0F34DD546800202EE000F118
:10117000080C4FF0010808FA0CF3B1F800C00CEAB3
:1011800003069E4221D183004FF00F0C0CFA03F7A7
:10119000BC4305FA03FC4CEA040491F803C0BCF11B
:1011A000280F05D100F1080C08FA0CF8C2F81480D9
:1011B00091F803C0BCF1480F07D100F1080C4FF0C3
:1011C000010808FA0CF8C2F81080401C0828CED399
:1011D0005460BDE8F0810000F0B50A460023002409
:1011E0000021002500F00046B6F1004F02D11D4E4F
:1011F000F16901E01B4E7168C0F3034583B200F44E
:101200004016B6F5401F08D121F07061154E766882
:1012100026F07066134F7E6012E000F48016B6F57B
:10122000801F06D1032606FA05F4A14341F0706140
:1012300006E0460D360103FA06F6B14341F070614F
:1012400022B1460D360103FA06F6314300F000469E
:10125000B6F1004F02D1034EF16101E0014E716021
:10126000F0BD00000000014041617047016170471E
:1012700021B1028842F00102028004E002884FF6A8
:10128000FE731A400280704710B504460B48844232
:1012900009D10121480500F0EDFB00214FF40010B9
:1012A00000F0E8FB08E00121880500F0E3FB0021E5
:1012B0004FF4800000F0DEFB10BD00000054004041
:1012C00021B1028842F40072028004E002884FF6E5
:1012D000FF531A40028070472DE9F04385B0044661
:1012E0000D460026B1460427DFF8CC80A6884FF6CD
:1012F000C0700640684600F0EDFBDDF808802F481E
:10130000B8FBF0F01FFA80F946EA0906A6802088AB
:101310004FF6FE710840208000262949286888423F
:101320000CD828684000B8FBF0F087B2042F00DA30
:1013300004273E4309F10100208427E0E8884BF6AA
:10134000FF71884206D1286800EB4000B8FBF0F03E
:1013500087B209E0286800EBC00101EB0010B8FB80
:10136000F0F087B247F48047C7F30B0008B947F0A5
:10137000010747F4004006434FF4967009FB00F064
:101380004FF47A7190FBF1F0401C2084A6832088F2
:1013900040F00100208026884FF6F5300640A888EE
:1013A0006989084306432680A88929890843208142
:1013B00005B0BDE8F083000000127A0040420F0043
:1013C000A086010000B585B00121082000F062FB75
:1013D0000121480500F03EFBC020ADF810001C20A4
:1013E0008DF8130003208DF8120004A91348FFF7AD
:1013F00067FE1348FFF748FF0020ADF804004BF6E6
:10140000FF70ADF806000020ADF808004FF48060D2
:10141000ADF80A000001ADF80C000A4800906946DA
:101420000748FFF759FF01210548FFF721FF012178
:101430000348FFF745FF05B000BD0000000C014068
:1014400000540040801A06002DE9F04104464FF692
:10145000FF75208840F48070208005E0281EA5F1EB
:10146000010501D1BDE8F081A08A00F0010000284B
:10147000F4D06C2020824FF6FF7504E0281EA5F101
:10148000010500D1EEE7A08A00F002000228F5D1A4
:10149000268B0C20208200BFA08A00F004000428C4
:1014A000FAD1208840F4006020804FF6FF75208834
:1014B00040F48070208004E0281EA5F1010500D1D1
:1014C000D0E7A08A00F001000028F5D04FF6FF75A4
:1014D0006D20208204E0281EA5F1010500D1C1E79E
:1014E000A08A00F002000228F5D172B6268B20886F
:1014F0004FF6FF310840208062B600BFA08A00F09E
:1015000004000428FAD172B601212046FFF7D8FE64
:10151000208AC7B262B6208A00F0FF0800BF208888
:1015200000F40070B0F5007FF9D0208840F48060AE
:10153000208020884FF2FF7108402080701C86B206
:1015400008EB072080B28DE710B50E480E49086001
:101550000020486001F074F90B49886009480B4984
:1015600008600020486001F06BF908498860054870
:10157000074908600020486001F062F9044988606A
:1015800010BD00000AD7A33C600200206C020020BE
:10159000780200202DE9F84F04460D4601F050F97D
:1015A0008046A168A8EB0100FFF715F882461B49A9
:1015B000FEF710FE8146C4F8088000214846FFF778
:1015C000D9F802D2DFF8589008E016494846FFF7EC
:1015D000DBF803D265602846BDE8F88F49462068ED
:1015E000FEF7A0FD824651462068FEF725FE06461E
:1015F00031464FF07E50FEF7E7FD83462946FEF761
:10160000E9FD824630466168FEF7E4FD51460090F0
:10161000FEF788FD074667603846DDE7BD3786354B
:101620006F12833A9A99993E10B5002018490880A4
:101630000120488008208880002016490880012069
:1016400048800820888002201349088001204880B3
:1016500008208880FFF7B6FE4FF480500F490860DD
:101660000FA000F039FF0A2002F06CFB02F046FEEA
:101670000E49086000200E4908600E4908600520E8
:1016800002F060FB02F0F2FB0B49086010BD0000A5
:1016900020000020260000202C0000203400002024
:1016A0004153353630300D0A000000003C00002068
:1016B00038000020440000204000002010B517A092
:1016C00000F00AFF1848016818480068FFF75CF846
:1016D00003D215480068154908601348006814498A
:1016E000086111480068134908611348007820B95F
:1016F0000D4800681149086103E0114800680F496E
:101700000861104800681049086110210F48FFF770
:10171000ADFD0FA000F0E0FE10BD00004D4F543AAB
:1017200020496E69740D0A008400002088000020A2
:10173000D0010020F40100207000002018020020D9
:1017400098000020940000203C0200200008014086
:101750004D4F543A20456E61626C65206472697623
:1017600065722E0D0A00000070B504460D4600217A
:101770002046FEF7FFFF03D01148046011480560C2
:1017800001F0B8FD02F072FB0F490860322002F050
:10179000D9FA03F0CFF90D490860052002F0D2FA1A
:1017A00003F0B0F90A4908600A480078022803D11A
:1017B0000846006808490860C82002F0C3FA70BDF6
:1017C000780000207C000020400000205000002015
:1017D0004800002071000020C800002070B50021E2
:1017E00000230F22C47804B3154C246804F4E06489
:1017F000C4F5E064210AC1F10403CA40447804FA44
:1018000003F184781440214309010E4C0678A15558
:10181000047804F01F050124AC4005786D11AD007B
:1018200005F1E025C5F8004109E0047804F01F0542
:101830000124AC40044D0678761145F8264070BD71
:101840000CED00E000E400E080E100E010B54FF0B6
:101850007C501D490860002048608860C86048616D
:101860008861C86100F0ECFF174908621748184901
:101870000860002048608860C86048618861C8616D
:1018800000F0DEFF124908624FF07C5011490860F9
:10189000002048608860C86048618861C86100F0C5
:1018A000CFFF0C4908624FF07C500B4908600020C4
:1018B00048608860C86048618861C86100F0C0FF06
:1018C0000549086210BD0000180200200000A04178
:1018D0003C020020D0010020F40100202DE9F04F4F
:1018E00085B004460F4600F0ABFF8146216AA9EBA4
:1018F0000100FEF770FE54490390FEF76BFC824630
:10190000C4F8209000215046FEF734FF09D9504614
:10191000FEF7D0FE00224D4BCDE90201FEF7F6FEA8
:1019200001D2DFF82CA139462068FEF753FC049061
:1019300038466169FEF7F6FB029051466068FEF793
:1019400049FC4FF07C510090FEF744FC0190029955
:10195000FEF740FC0390E169FEF7E4FB05462069D1
:1019600080F0004029460390FEF70EFF03D2206965
:1019700080F0004007E028462169FEF705FF01D20C
:10198000206900E02846054638466169FEF71CFCE0
:101990000290A168FEF71EFC51460390FEF74CFC36
:1019A000834629460498FEF7BDFB59460390FEF78F
:1019B000B9FB0646206980F0004031460390FEF7EF
:1019C000E3FE03D2206980F0004007E03046216941
:1019D000FEF7DAFE01D2206900E03046064600211B
:1019E000E068FEF7D1FE28D23046A169FEF7ECFB95
:1019F00051460390FEF720FC80464046E168FEF722
:101A0000C3FE09D25146E068FEF7E4FB0390A169EA
:101A1000FEF788FB064610E0E06880F00040414693
:101A20000390FEF7B1FE08D25146E068FEF7D2FB04
:101A30000390A169FEF7CBFB0646E561A6616761ED
:101A4000304605B0BDE8F08FBD3786350000E03F79
:101A50006F12833A29B1064AD2690243044BDA6114
:101A600004E0034AD2698243014BDA617047000007
:101A70000010024029B1064A12690243044B1A6160
:101A800004E0034A12698243014B1A617047000067
:101A90000010024029B1064A92690243044B9A6140
:101AA00004E0034A92698243014B9A617047000047
:101AB0000010024029B1064AD2680243044BDA60A2
:101AC00004E0034AD2688243014BDA6070470000A9
:101AD0000010024030B500210022002400232D4DCB
:101AE0006D6805F00C0121B1042905D0082923D126
:101AF00005E0294D056022E0274D05601FE0254DDA
:101B00006D6805F47012234D6D6805F4803402256C
:101B100005EB92421CB9214D554305600BE01D4D6C
:101B20006D6805F400351DB11C4D5543056002E09C
:101B3000194D5543056002E0174D056000BF00BF19
:101B4000144D6D6805F0F0010909154D6B5C0568D1
:101B5000DD4045600F4D6D6805F4E061090A104DE8
:101B60006B5C4568DD4085600A4D6D6805F4605129
:101B7000C90A0B4D6B5C4568DD40C560054D6D685D
:101B800005F44041890B074D6B5CC568B5FBF3F567
:101B9000056130BD0010024000127A0000093D00CE
:101BA000000000201000002010B500F001F810BD6A
:101BB0000CB50020019000903348006840F480305C
:101BC0003149086000BF3048006800F400300090E0
:101BD0000198401C0190009818B90198B0F5A06FC9
:101BE000F1D12948006800F4003010B101200090C4
:101BF00001E0002000900098012843D123480068AC
:101C000040F01000214908600846006820F00300F9
:101C100008600846006840F0020008601A48406802
:101C2000194948600846406848600846406840F4E2
:101C3000806048600846406820F47C104860084690
:101C4000406840F4E81048600846006840F0807042
:101C5000086000BF0C48006800F000700028F9D050
:101C60000948406820F0030007494860084640687A
:101C700040F00200486000BF0348406800F00C00DC
:101C80000828F9D10CBD00000010024000200240DD
:101C900002480068401C0149086070471400002099
:101CA00010B51348006840F001001149086008466B
:101CB0004068104908400E494860084600680E49CF
:101CC00008400B4908600846006820F4802008603E
:101CD0000846406820F4FE0048604FF41F0088600A
:101CE000FFF762FF4FF000600449086010BD00007C
:101CF000001002400000FFF8FFFFF6FE08ED00E0D4
:101D000000B589B001210420FFF7C4FE0121084677
:101D1000FFF7A0FE0720ADF8200018208DF8230063
:101D200003208DF8220008A92448FFF7C9F94FF0D5
:101D3000804000F05DF80020ADF8140040F29F50A4
:101D4000ADF818002020ADF816000020ADF81A00FC
:101D500005A94FF0804000F055FA6020ADF804006E
:101D60000120ADF806000020ADF80A00ADF80C0027
:101D700001A94FF0804000F02FF901A94FF08040F9
:101D800000F080F901A94FF0804000F0DBF9082154
:101D9000C80600F06DF90821C80600F0C5F9082151
:101DA000C80600F01FFA0121880700F009F8012198
:101DB000880700F011F809B000BD000000080140DC
:101DC00021B1028842F08002028004E002884FF6CE
:101DD0007F731A400280704721B1028842F00102ED
:101DE000028004E002884FF6FE731A4002807047BA
:101DF00010B504466848844208D10121C014FFF799
:101E000059FE0021E014FFF755FEC4E0B4F1804F05
:101E100008D101210846FFF72DFE00210120FFF720
:101E200029FEB8E05D48844208D101210220FFF775
:101E300021FE00210220FFF71DFEACE0584884423D
:101E400008D101210420FFF715FE00210420FFF72F
:101E500011FEA0E05348844208D101210820FFF779
:101E600009FE00210820FFF705FE94E04E48844259
:101E700008D101211020FFF7FDFD00211020FFF700
:101E8000F9FD88E04948844208D101212020FFF76C
:101E9000F1FD00212020FFF7EDFD7CE04448844265
:101EA00008D101214014FFF705FE00216014FFF75F
:101EB00001FE70E03F48844209D10121C804FFF7C8
:101EC000F9FD00214FF40020FFF7F4FD63E03A48EC
:101ED000844209D101210805FFF7ECFD00214FF4F0
:101EE0008010FFF7E7FD56E03448844209D1012114
:101EF0004805FFF7DFFD00214FF40010FFF7DAFD82
:101F000049E02F48844208D101214020FFF7B2FD6B
:101F100000214020FFF7AEFD3DE02A48844208D171
:101F200001218020FFF7A6FD00218020FFF7A2FD00
:101F300031E02548844208D101218015FFF79AFD40
:101F40000021A015FFF796FD25E02048844209D125
:101F500001210804FFF7AEFD00214FF48030FFF7A8
:101F6000A9FD18E01A48844209D101214804FFF76D
:101F7000A1FD00214FF40030FFF79CFD0BE0154858
:101F8000844208D101218804FFF794FD00214FF419
:101F90008020FFF78FFD10BD002C014000040040A1
:101FA00000080040000C00400010004000140040F9
:101FB00000340140004C01400050014000540140F9
:101FC00000180040001C004000200040004001407C
:101FD000004401400048014070B500240022002365
:101FE000058C4FF6FE7635400584028C8388048B81
:101FF0004FF68F752C40B51E2C400D882C43751E56
:102000002A400D892A434D882A43144DA8420BD0FB
:10201000134DA84208D0134DA84205D0124DA84236
:1020200002D0124DA84213D14FF6F7752A404D89C0
:102030002A434FF6FB752A408D882A434FF6FF65E9
:102040002B404FF6FF552B408D892B43CD892B43D9
:1020500083800483CD888586028470BD002C014076
:10206000003401400040014000440140004801406C
:102070000A460021018B4FF6F77319401143018383
:102080007047000070B5002400220023058C4FF635
:10209000EF7635400584028C8388048B48F6FF7503
:1020A0002C404FF6FF452C400D884FF6FF7606EA90
:1020B00005252C434FF6DF752A400D8906EA0515E4
:1020C0002A434D8806EA05152A43154DA84202D039
:1020D000144DA8421DD14FF67F752A404D894FF609
:1020E000FF7606EA05152A434FF6BF752A408D880C
:1020F00006EA05152A434FF6FF352B404FF2FF75D0
:102100002B408D8906EA85052B43CD8906EA850596
:102110002B4383800483CD880587028470BD000033
:10212000002C0140003401400A460021018B4FF28F
:10213000FF7319404FF6FF7303EA0223194301832B
:102140007047000070B5002400220023058C4FF674
:10215000FF6635400584028C8388848B4FF68F752B
:102160002C404FF6FC752C400D882C434FF6FF5544
:102170002A400D894FF6FF7606EA05252A434D8849
:1021800006EA05252A43154DA84202D0144DA8425F
:102190001DD14FF2FF752A404D894FF6FF7606EAB2
:1021A00005252A434FF6FF352A408D8806EA052586
:1021B0002A434EF6FF752B404DF6FF752B408D8957
:1021C00006EA05152B43CD8906EA05152B438380C6
:1021D0008483CD888587028470BD0000002C014077
:1021E000003401400A460021818B4FF6F7731940F5
:1021F00011438183704781867047018770478187CB
:1022000070470000002202881D4B98420ED01D4BE3
:1022100098420BD0B0F1804F08D01B4B984205D0AC
:102220001A4B984202D01A4B984204D14FF68F7342
:102230001A404B881A43174B984207D0164B9842C6
:1022400004D04FF6FF431A40CB881A4302808B8894
:1022500083850B8803850A4B98420BD0094B984223
:1022600008D00E4B984205D00D4B984202D00D4B32
:10227000984201D10B7A03860123838270470000C4
:10228000002C0140003401400004004000080040E0
:10229000000C0040001000400014004000400140CD
:1022A000004401400048014010B540F2255120484B
:1022B00000F050F800283AD01D4800F007F9C4B2E9
:1022C0001C48008800F40040F8B91A48008800F45F
:1022D000804090B10A2C03D000201649088026E0E7
:1022E0001448008840F40040124908800020098802
:1022F000C1F30D01104A505419E00D2C06D10D48C0
:10230000008840F480400B49088010E009480088AC
:10231000C0F30D0008490C5406480088401C0549CC
:10232000088008460088FF2801DD0020088010BDD5
:10233000003801401C000020D000002021B182891B
:1023400042F40052828104E082894DF6FF731A4004
:102350008281704770B502460024002300250020CA
:1023600040F66A16B14200D100BFC1F3421501F038
:102370001F03012606FA03F3012D02D1968933408B
:1023800006E0022D02D1168A334001E0968A3340DE
:102390000C12012606FA04F41688344013B10CB16D
:1023A000012000E0002070BDF0B5034600240026A7
:1023B0000025002040F66A17B94200D100BF184638
:1023C000C1F3421401F01F06012707FA06F5012C9C
:1023D00001D10C3004E0022C01D1103000E01430A7
:1023E0001AB107682F43076002E00768AF43076030
:1023F000F0BD00002DE9F04786B005460E460024EA
:10240000A24600BFA1460027B08900B100BF2F46F9
:102410002C8A4CF6FF700440F08804432C82AC896F
:102420004EF6F3100440B08831890843718908439F
:102430000443AC81AC8A4FF6FF400440B0890443AA
:10244000AC8201A8FFF746FB1F48874202D1DDF8A6
:1024500010A001E0DDF80CA0A88900F4004040B114
:102460000AEBCA0000EB0A1031684900B0FBF1F832
:1024700007E00AEBCA0000EB0A1031688900B0FBE4
:10248000F1F86420B8FBF0F004012009642101FB9D
:102490001089A88900F4004040B1322000EBC90047
:1024A000B0FBF1F000F00700044308E0322000EB3D
:1024B00009106421B0FBF1F000F00F0004432C81FF
:1024C00006B0BDE8F087000000380140014688886A
:1024D000C0F30800704700000FB4054B10B503A906
:1024E000044A029800F0F0F910BC5DF814FB0000FB
:1024F000513E000818000020490050EAC12018BFD2
:1025000004204A0D18BF40F0010040F2FF72B2EB08
:10251000515F08BF40F00200012808BF0520704746
:102520002DE9F0414F1E00EBC7010446D1E900013F
:1025300015461E4637F006020DD02A463346FDF7F3
:1025400060FF7F1E04EBC703D3E90023FDF7B2FE53
:1025500037F00602F1D1022F25D0042F13D0062F19
:1025600018BFBDE8F0812A463346FDF74AFFD4E99B
:102570000A23FDF79FFE2A463346FDF742FFD4E9C2
:102580000823FDF797FE2A463346FDF73AFFD4E9C4
:102590000623FDF78FFE2A463346FDF732FFD4E9C6
:1025A0000423FDF787FE2A463346FDF72AFFD4E9C8
:1025B0000223FDF77FFE2A463346FDF722FFD4E9CA
:1025C0000023BDE8F041FDF775BE0122FEF784BC93
:1025D000FDF770BE0022134610461146FDF783BF7B
:1025E000024A00201107FEF777BC000001FDFFFF43
:1025F0000148006870470000CC00002002E008C8D5
:10260000121F08C1002AFAD170477047002001E06C
:1026100001C1121F002AFBD1704700000149086068
:1026200070470000CC0000202DE9F04706463046F8
:10263000FEF740F80746134A134BFDF73BFE0446EE
:10264000FEF77CF881464846FEF734F807460F4A05
:102650000F4BFEF75BF808D24846FEF72BF807460B
:102660000A4A0B4BFDF7C7FE02E04846FEF722F888
:102670000446FEF763F88146484600F0DFFCBDE8FB
:10268000F0870000F4D64354FB21F93FEA2E44546E
:10269000FB21194070B504460D462846FDF792FF10
:1026A00006462146FDF796FD70BD00002DE9FF5F4F
:1026B00082B00021DDE90430020DDDF840B00343B3
:1026C00018D044F61050A2F2FF324243151411986C
:1026D00001281FD0A5EB0B00401C5FEA000A4FF059
:1026E00000064E4FDFF83891B046504615D5CAF176
:1026F000000413E0119801244AA3012801D16FEAD4
:102700000B010298119AC0E90031C0E9024206B0FB
:10271000BDE8F09FCBF10000DFE704460021404A0E
:10272000491842EB0450CDE9001012E0E00707D051
:1027300032463B4640464946FDF763FE80468946A1
:1027400032463B4610461946FDF75BFE06460F46ED
:102750006410002CEAD1DDE90401DDE90023BAF1BF
:10276000000F06DAFDF74DFE42464B46FDF749FEE7
:1027700005E0FDF7B8FE42464B46FDF7B4FE0446C1
:102780000E460022284BFDF7C1FF03D84FF0FF3063
:10279000014607E00022254B20463146FDF78AFD21
:1027A000FEF799F9102409E0002C0ADB0A22002325
:1027B000FEF70AF8039B30321A55641E50EA0102F4
:1027C000F2D1641C039AC4F111031444119A012A32
:1027D00003D0012208430DD10AE0084304D00020B1
:1027E0004FF0110B119072E7A3EB0B056D1E0DE07E
:1027F0005B4504DD4FF0000205F1010504E003DA5A
:102800004FF00002A5F10105002AECD002981199C1
:10281000C0E90231C0E9004579E70000000014403A
:102820000000F03F300000000000F0430000E03FF7
:1028300030380A2801D2012070470020704700007C
:1028400000BF0A4801684FF0E0208269074800682D
:102850008142F6D10648801A4823B0FBF3F001EB21
:102860004103C3EBC11300EBC30070471400002009
:10287000401901002DE9F04706463046FDF71AFFE2
:1028800007460F4A0F4B01F099FA0446FDF756FF31
:10289000814600214846FDF777FF03D84846FDF7FB
:1028A00009FF07E04846FDF705FF0746044A054BC8
:1028B000FDF700FD0446FDF741FFBDE8F08700008D
:1028C000EA2E4454FB2119402DE9FF4F95B09B4659
:1028D0008946064600250FE2252877D100242746A1
:1028E000F84A0121059400E0044316F8013F203B1B
:1028F00001FA03F01042F7D130782A2811D06FF096
:102900002F033078A0F13002092A16D8059A44F036
:10291000020402EB820203EB42021044761C059093
:10292000EFE759F8042B0592002A03DA504244F4E9
:102930000054059044F00204761C30782E2816D1FD
:1029400016F8010F44F004042A280DD06FF02F026E
:102950003078A0F13003092B09D807EB870302EB8D
:102960004303C718761CF3E759F8047B761C3078CC
:102970006C280FD006DC4C2817D068280DD06A28A8
:1029800014D104E0742810D07A280FD10DE044F45B
:1029900000140AE044F4801401E044F44014727816
:1029A000824202D104F58014761C761C30786628A9
:1029B0000BD013DC582877D009DC002875D04528C7
:1029C000F6D04628F4D047281AD19DE118E06328B4
:1029D00035D0642879D0652812D195E1702873D05C
:1029E00008DC6728F1D069286FD06E280DD06F28D9
:1029F00006D1B5E073282CD0752875D0782874D00E
:102A00005A46179990476D1C75E1C4F3025002288D
:102A100009D003280DD0D9F8001004280DD00D607E
:102A200009F1040967E1D9F80010EA17C1E9005279
:102A3000F6E7D9F800100D80F2E70D70F0E719F80D
:102A4000041B8DF8001000208DF80100EA460120DB
:102A500003E059F804AB4FF0FF3061074FF000017D
:102A600002D40DE008F101018846B9420FDA804531
:102A7000F8DB1AF808100029F4D108E008F1010188
:102A800088468142FADB1AF808100029F6D1059829
:102A90005B46A0EB080721463846179A00F094FAE7
:102AA000284400EB080507E04DE029E10DE01AF8A5
:102AB000010B5A4617999047B8F10108F7D25B46C7
:102AC00021463846179A13E142E00A220092C4F3E5
:102AD00002524FF0000A022A08D059F804CB032A08
:102AE0004FEAEC710AD00DE029E02AE009F1070174
:102AF00021F00702F2E802C1914609E00FFA8CFCCE
:102B00004FEAEC71042A03D14FFA8CFC4FEAEC71C6
:102B1000002907DA0A460021DCF1000C61EB020112
:102B20002D2202E0220504D52B228DF8042001225B
:102B300003E0E20701D02022F7E7904659E00A219E
:102B400002E010220DE010214FF0000A00910BE08E
:102B500010224FF0000A44F004040827009203E01A
:102B600008224FF0000A0092C4F30252022A05D054
:102B700059F804CB0021032A08D009E009F1070124
:102B800021F00702F2E802C1914605E01FFA8CFC31
:102B9000042A01D10CF0FF0C4FF00008220728D5C1
:102BA000702806D0009B83F0100353EA0A0305D077
:102BB0000EE040228DF80420012208E05CEA0102C8
:102BC00006D030228DF804208DF8050002229046B0
:102BD000009B83F0080353EA0A030AD15CEA01026E
:102BE00001D1620705D530228DF804204FF001088D
:102BF0007F1E582804D034A003900EA802900DE048
:102C000036A0F9E753466046009AFDF7DDFD84469D
:102C10000398825C0298401E029002705CEA0100F8
:102C2000F0D1029806A9081A00F1200A600702D51F
:102C300024F4803400E00127574502DDA7EB0A00A9
:102C400000E0002000EB0A01009005984144401A82
:102C50000590E00306D45B462146179A059800F0DC
:102C6000B3F90544002706E001A85A46C05D17994C
:102C700090476D1C7F1C4745F6DBE0030CD55B4697
:102C80002146179A059800F09FF9054404E030208A
:102C90005A46179990476D1C0099481E00900029CC
:102CA000F5DC08E0029802995A460078491C029126
:102CB000179990476D1CBAF10001AAF1010AF1DCE5
:102CC00065E10000092801003031323334353637F0
:102CD0003839616263646566000000003031323368
:102CE0003435363738394142434445460000000008
:102CF00000F058F90544761C307800287FF4ECADDC
:102D000019B02846BDE8F08F620700D4062709F104
:102D1000070222F0070CFCE80223E14603F000481A
:102D20005FEA080C02D00FF2702C0DE05FEA045C41
:102D300002D50FF2682C07E05FEAC47C02D00FF2E4
:102D4000602C01E0AFF2700C4FF0FF3823F000432D
:102D5000CDF850C065280CD006DC452809D046289F
:102D60001DD047283DD13DE0662818D067287ED188
:102D700038E00021112F01DB112000E0781CCDE9A3
:102D8000000106A90EA8FFF791FCDDE90F010E9ADC
:102D900003910021009207F1010A04914DE04FF0E8
:102DA00000400097CDE9011006A90EA8FFF77EFCB0
:102DB000DDE90F0203920E9B11990022DDF80CA0B1
:102DC0000093049211B9791C00EB010AB7EB0A00D9
:102DD00004D4C0F1FF3007F1010A0490AAEB070008
:102DE000019044E0012F00DA01270021112F01DDBD
:102DF000112000E03846CDE9000106A90EA8FFF732
:102E000055FCDDE90F010E9A039100210491009217
:102E1000BA4621070CD40399514500DA8A46BAF123
:102E2000010F05DD009AAAF10101515C302908D09B
:102E3000B84202DA10F1040F06DA0121CDE90110DF
:102E400015E0AAF10101E9E7002805DC0499014435
:102E50000491AAEB000102E0411C514500DD8A46C5
:102E60000499401A401C01904FF000400290200746
:102E700004D40198504501DBCDF8048000208DF882
:102E80004F0002980DF14F07B0F1004F25D02B20D5
:102E90000E9002984FF0020800280CDA404202908F
:102EA0002D200E9007E00A210298FDF777FC3031C3
:102EB000029007F8011DB8F10001A8F10108F2DC49
:102EC00002980028EFD1791E0E980870307800F033
:102ED000200040F0450007F8020D12A8C01B00F1C9
:102EE00007081498007800B1012000EB0A0101984E
:102EF00001EBE07105984144401A401E0590E00343
:102F000006D45B462146179A059800F05DF8054403
:102F10001498007818B15A46179990476D1CE00331
:102F200024D55B462146179A059800F04DF80544D4
:102F30001CE00498002807DBDDE90301884203DD7B
:102F40000098405C179901E0179930205A46904745
:102F5000049805F10105401C04900198401E019061
:102F600004D12E205A46179990476D1CBAF10001E2
:102F7000AAF1010ADDDC05E017F8010B5A461799A2
:102F800090476D1CB8F10001A8F10108F4DC5B4624
:102F90002146179A0598ABE62D0000002B00000093
:102FA000200000002DE9F041044600251E4617468A
:102FB000880404D405E039462020B0476D1C641E07
:102FC000F9D52846BDE8F0812DE9F04104460025F9
:102FD0001E469046C80301D5302700E0202788040C
:102FE00004D505E041463846B0476D1C641EF9D54E
:102FF0002846BDE8F08100002DE9F84F8246504692
:1030000000F066FB00900098FDF7E5FA8346FDF7B7
:1030100051FB80464FF06632064BFDF7F2F906464B
:103020000022054BFDF75FFA0446FDF787FBBDE87C
:10303000F88F000066660A400000B0402DE9FF5F8F
:1030400083465846FDF736FB0446954A954BFDF7F7
:1030500045FB44D25846FDF72DFB934A934BCDE9EF
:103060000201FDF7CEF9804600221346FDF74EFB24
:1030700012D85846FDF71EFB80468B4A8B4BFDF756
:10308000C0F900228A4BCDE90001FDF713F9CDE923
:103090000201FDF7D7FA11E05846FDF70BFB824A13
:1030A000824BCDE90001FDF7ACF90022804BCDE960
:1030B0000201FDF7A0F98046FDF7C4FA7D4951F8F9
:1030C00020A05046FDF78CFA06467B4A7B4BFDF765
:1030D00098F90446FDF732FB04B0BDE8F09F58466E
:1030E000FDF7E8FA0446764A764BFDF7F7FA44D244
:1030F0005846FDF7DFFA6C4A6C4BCDE90201FDF74B
:1031000080F9804600221346FDF700FB12D858468E
:10311000FDF7D0FA644A654BCDE90001FDF771F97E
:103120000022634BCDE90201FDF7C4F88046FDF7AC
:1031300089FA11E05846FDF7BDFA5B4A5B4BCDE9D1
:103140000001FDF75EF90022594BCDE90201FDF7C0
:1031500052F98046FDF776FAC0F5C770554951F827
:1031600020A05046FDF73CFA0646534A534BFDF764
:1031700048F90446FDF7E2FAAEE75846FDF79AFA39
:103180000446514A514BFDF7A9FA44D25846FDF77F
:1031900091FA454A454BCDE90201FDF732F98046E7
:1031A00000221346FDF7B2FA12D85846FDF782FA0C
:1031B0003D4A3E4BCDE90001FDF723F98046002250
:1031C0003B4BFDF777F8CDE90201FDF73BFA11E043
:1031D0005846FDF76FFA344A344BCDE90001FDF74C
:1031E00010F980460022324BFDF705F9CDE90201C6
:1031F000FDF728FAA0F5C7702E4951F820A05046D7
:10320000FDF7EEF906462C4A314BFDF7FAF8044675
:10321000FDF794FA60E75846FDF74CFA8046224ADB
:10322000224BFDF7EEF800221346CDE90201FDF72F
:103230006DFA12D85846FDF73DFA1B4A1B4BCDE9F3
:103240000001FDF7DEF880460022194BFDF732F849
:10325000CDE90201FDF7F6F911E05846FDF72AFA2B
:103260008046114A114BFDF7CCF80022104BCDE9F6
:103270000001FDF7C0F8CDE90201FDF7E3F9C0F563
:1032800047700C4951F820A05046FDF7A9F90646B1
:10329000094A0F4BFDF7B5F80446FDF74FFA1BE757
:1032A000F4D64354FB21F93F9CA223B9FCAB5F4009
:1032B0000000E03FE44C00082D431CEBE2361A3FCF
:1032C000EA2E4454FB210940320D337F7CD9124051
:1032D000E2361ABF70B5044625462E460448A0EBD8
:1032E0006606354629462046FCF774FF70BD00008F
:1032F000865A375F2DE9F04F87B09AA0FFF7ECF8B8
:103300009E48006800287DD1002421E02046FDF77A
:1033100067F99B4A9B4BCDE90001FDF772F8064621
:103320000022994BFDF7DFF8984A994BCDE902014D
:10333000FCF7C0FF8146FDF701FA804642460021B6
:103340009448006801F0EAF9022000F0FBFC641CDC
:10335000B4F5FA7FDADD00F089FD05904FF4FA74D8
:1033600021E02046FDF73CF98146854A854BFDF773
:1033700048F80022844BCDE90001FDF7B4F8064679
:10338000824A834BFCF796FFCDE90201FDF7D6F99F
:103390008046424600217F48006801F0BFF90220C4
:1033A00000F0D0FC641E002CDBDA00F05FFD04901E
:1033B00000221146104601F0B1F9C82000F0C2FC0D
:1033C0000598FDF777F9064632460B4672A0FFF7DF
:1033D00083F80498FDF76EF9064632460B4673A053
:1033E000FFF77AF8DDE90410FCF7EEFE8146FDF701
:1033F00061F921F000410646FDF7A0F90546DDE937
:10340000041000E066E0FDF7B5F908D02846FDF7A6
:1034100051F906466A4A6B4BFDF760F90AD26AA079
:10342000FFF75AF810217348FDF71EFF002007B080
:10343000BDE8F08FDDE90410FDF79CF907D26EA01E
:10344000FFF74AF84FF0FF304C49086005E072A0E2
:10345000FFF742F801204949086076A0FFF73CF8E1
:1034600078480068FDF7AEF829460390FCF7B2FEF5
:103470008346FDF71FF90646414A424BFCF7BBFF66
:1034800021F00041814600226F4BFDF73FF91DD22C
:103490006EA0FFF721F82846FDF70CF981464A4651
:1034A0000B4637483749FDF71EF80022664BCDE939
:1034B0000201FCF7FFFE0646FDF7C4F8614908600B
:1034C0000846016867A0FFF707F806E067A0FFF766
:1034D00003F802E067A0FEF7FFFF00216B480068D9
:1034E000FDF748F938D16A4A00212A48006801F0FE
:1034F00015F94FF42F7000F025FC00F0B7FC814661
:103500001E480068FDF75EF882464946FCF762FEF9
:1035100007464C4801683846FFF7BCF80646FFF7F7
:10352000A9F95A490860142000F00CFC59A0FEF7D4
:10353000D3FF56480068FDF7BDF8064632460B46F5
:103540005AA0FEF7C9FF00221146104601F0E6F826
:10355000C82000F0F7FB02E056A0FEF7BDFF0120F7
:1035600065E700004D4F543A20416C69676E207347
:10357000656E736F722E0D0A000000007C00002043
:10358000EA2E4454FB21194000407F40320D337F26
:103590007CD91240880000206D69645F616E676CA1
:1035A000653D252E34660D0A00000000656E645FDF
:1035B000616E676C653D252E34660D0A00000000C3
:1035C0007B14AE47E17A843F4D4F543A20466169FF
:1035D0006C656420746F206E6F74696365206D6F15
:1035E00076656D656E74206C6F6F703232322E0DA1
:1035F0000A000000000801404D4F543A2073656EE8
:10360000736F725F646972656374696F6E3D3D4389
:1036100043570D0A000000004D4F543A2073656E69
:10362000736F725F646972656374696F6E3D3D4369
:10363000570D0A004D4F543A20505020636865637F
:103640006B3A20008C0000200000E03F6661696C4E
:10365000202D20657374696D617465642070703A03
:103660000000000025640D0A000000004F4B210DF2
:103670000A0000004D4F543A20536B697020646972
:10368000722063616C69622E0D0A000078000020D0
:10369000E4CB96404D4F543A205A65726F20656CCA
:1036A00065632E20616E676C653A0000252E3466D6
:1036B0000D0A00004D4F543A20536B6970206F661D
:1036C000667365742063616C69622E0D0A000000E8
:1036D00010B504460223012221460948FDF741FCAA
:1036E00001210748FDF799FC00BF02210448FDF7BE
:1036F0002FFC0028F9D00248FDF726FC10BD000081
:10370000002401402DE9F84F0446FFF799F881465F
:103710003F490968A9EB0100FCF75DFF05463D49FB
:10372000FCF758FD82463A48C0F800900021504608
:10373000FDF720F805D94FF07C515046FDF724F8ED
:1037400001D2DFF8D4A0514634480068FCF742FDAE
:103750000090FCF7AFFF05460E4631480168204651
:10376000FCF732FD0090FCF7A5FF21F00041074671
:103770002A463346FCF7CAFF33D22948016820465F
:10378000FCF722FD00210090FCF7F4FF02D24FF07D
:10379000FF300CE0224801682046FCF715FD0021AF
:1037A0000090FCF7F1FF01D2012000E000208046EC
:1037B000FCF708FF0746194801683846FCF70AFD80
:1037C00006465146FCF706FD0546154801682846A1
:1037D000FCF7A8FC1249086010480068114908600D
:1037E00004E00F48046000200E4908600E48D0F83D
:1037F00000B00E4801680A480068FEF74BFF054616
:103800002A460021584600F089FF5846BDE8F88F47
:1038100090000020BD3786356F12833A9400002057
:103820004800002050000020840000208C00002070
:103830002DE9F84F04460D4621F0004000917349F0
:10384000814211DC7249884201DC06D12CB120464C
:103850002946BDE8F84FFEF7B8BE6E48002DCCBF34
:103860006D496E49BDE8F88F6D49814211DD6D49A2
:103870008142D8BF4FF0FF366DDD20462946FEF766
:103880003BFE042808BFFEF7ABFE20462946BDE8F4
:10389000F88F6549654F25F00045814233DD644965
:1038A000814219DD002632464FF0804320462946EA
:1038B000FCF700FD80468A46012220462946FDF796
:1038C0000BFB00223B46FCF796FD42465346FCF7B5
:1038D0000AFE04460D463EE001260022BA463B465B
:1038E00020462946FCF7E6FC80460F460022534658
:1038F00020462946FCF77FFD42463B46FCF7F3FD98
:1039000004460D4627E04B4981421BDDDFF828A124
:1039100002260022534620462946FCF772FD00226B
:103920003B46FCF7C7FC80460F4600225346204624
:103930002946FCF760FD42463B46FCF7D4FD0446B1
:103940000D4608E0032622462B4600203B49FCF7A3
:10395000CAFD04460D4622462B4610461946FCF782
:1039600050FD8B46824602460B46FCF74AFD074651
:103970000246334888460B4606217844FEF7D0FDC0
:1039800052465B46FCF73DFD82462E488B463A4642
:10399000434605217844FEF7C3FD3A464346FCF70B
:1039A00030FD02460B46002E504659460CDAFCF715
:1039B00081FC22462B46FCF724FD01B022462B4613
:1039C000BDE8F04FFCF71ABDFCF774FC22462B460D
:1039D000FCF717FD1C4A7A4402EBC603D3E9002327
:1039E000FCF709FD22462B46FCF705FD174A7A44F1
:1039F00002EBC603D3E90023FCF700FD009A002A7E
:103A0000B8BF81F00041BDE8F88F0000000010440D
:103A10000000F07F182D4454FB21F93FFB21F9BF32
:103A20000000DC3F0000203E0000F33F0000F03FBC
:103A30000000E63F008003400000F83F0000F0BFB8
:103A4000F2160000B01600004E1600001616000018
:103A50002DE9F04D9446CCF1000423F000464CEAE9
:103A60000404524F46EAD4749A46884621F0004234
:103A7000BC4206D8454240EA050442EAD474BC423E
:103A800004D9BDE8F04D6246FEF7A2BDAAF140554B
:103A9000A5F17F6555EA0C040BD0022404EAAA7450
:103AA000434DDFF810E144EAD87452EA000B04D029
:103AB0000CE0BDE8F04DFFF7BBBE002C14BF012C9D
:103AC000BDE8F08D022C30D0032C32D056EA0C0B1E
:103AD0000AD0BE4220D1BA4209D126F0804622F057
:103AE00080423346114617E000291ADB25E0DFF853
:103AF000C8B0FB44002C04BFDBE90001BDE8F08D39
:103B0000012C02BFDBE9000181F00041BDE8F08D2E
:103B1000022C0AD0032C0CD0BA4212D1B8F1000FFB
:103B20000BDA23482549BDE8F08D28462449BDE835
:103B3000F08D28467146BDE8F08D1D482149BDE84D
:103B4000F08D921B12153C2AC4BF19481D490EDC8A
:103B5000BAF1000FBEBF12F13C0F0020014606DB98
:103B60006246FCF7C0FC21F00041FFF761FE002C2B
:103B700008BFBDE8F08D012C04BF81F00041BDE815
:103B8000F08D114A114B022C07D0FCF734FC2A4669
:103B9000BDE8F04D0A4BFCF72EBCFCF72CFC2A4686
:103BA000BDE8F04D064BFCF729BC00000000F07F9B
:103BB000182D4454FB2109C0AA150000FB21F9BFB0
:103BC000FB210940FB21F93F075C143326A6A13CE9
:103BD00030B583B00446FEF70BFD05460020CDE965
:103BE0000000024621466846FCF76BFE2846FEF7B9
:103BF00015FDDDE9000103B030BD000070B53848A7
:103C0000008800F40040002868D03648007850282A
:103C10003AD006DC41282CD0482807D0492859D171
:103C200045E0542806D0562854D117E02EA0FEF7C0
:103C300053FC4FE02B48401CFFF7CAFF0446FCF73B
:103C40007DFD2D49086008460068FCF733FD0446F9
:103C500022460B4629A0FEF73FFC3BE02A480068BD
:103C6000FCF728FD044622460B4628A0FEF734FC4C
:103C700030E029480068FCF71DFD044622460B464B
:103C800026A0FEF729FC25E01648401CFFF7A0FF00
:103C90000446FCF753FD244908600868FCF70AFD58
:103CA000044622460B4621A0FEF716FC12E00D4802
:103CB000401CFFF78DFF0446FCF740FD1A494860A1
:103CC0004868FCF7F7FC044622460B461AA0FEF7AC
:103CD00003FC00BF00BF00200149088070BD000048
:103CE0001C000020D000002048656C6C6F20576FCE
:103CF000726C64210D0A0000C8000020543D252E7E
:103D000034660D0A000000005000002056656C3D2E
:103D1000252E32660D0A000048000020416E673DE6
:103D2000252E32660D0A000018020020503D252E77
:103D300034660D0A00000000493D252E34660D0A48
:103D400000000000F0B50646FEF77AFD054600BF0C
:103D5000FEF776FD0446AC4201D3671B02E0C5F1D5
:103D6000FF30071906EB4600C0EBC610B7EBC00FDB
:103D7000EED3F0BD2DE9F0410C480068FCF722FCC1
:103D800006460B4801680B480068FCF7CBF907466C
:103D90003146FCF71FFA0546074801682846FCF73C
:103DA00013FA0446FEF766FDBDE8F0818C000020A2
:103DB00074000020480000207800002070B51446F0
:103DC0001D460E46002814BF01210021314321F079
:103DD0000041C1F17F6101F1E041C90F16D1002C12
:103DE00014BF01210021294321F00041C1F17F616D
:103DF00001F1E041C90F09D11449B1EB460F08BFE9
:103E000000281CD0690008BF002C18D03146FCF7F0
:103E10001FFE024640F2FF7030EA11500DD0F0173D
:103E2000B0EBE17F09D0084665F31E0084460B46DF
:103E300020466146FCF7E2FA0246104670BD0120BA
:103E4000FEF7ECFBBDE87040FEF7C4BB0000E0FFEE
:103E500000BF054A128802F04002002AF9D0C2B21F
:103E6000014B1B1D1A807047003801402DE9F04FAF
:103E700087B000F043FA044648480068A4EB000904
:103E800047480068FCF7ACFB0746464A464BFCF740
:103E9000B8FA05460E464846FCF7A2FB21F0004161
:103EA00082462A463346FCF731FC19D23F48006867
:103EB000FCF700FC82468B46B9F1000F02DD3C495D
:103EC0003C4801E03A493C480F463A4603465046D2
:103ED0005946FCF7EFF90546FCF730FC334908601A
:103EE0002E48046031480068FCF7E4FB0546334A7D
:103EF000334BFCF70BFC10D800202C4908603148EC
:103F00000068FCF7D7FB07462C4A2D4BFCF773FAE9
:103F10000546FCF713FC2B49086024480068FCF7B1
:103F2000C9FB0546254A284BFCF7D8FB10D80020D2
:103F30001E49086023480068FCF7BCFB05461F4A81
:103F40001F4BFCF7B7F90746FCF7F8FB1D49086063
:103F500013480068FCF736FB02902046FCF732FB62
:103F600001900299FCF768F90390FCF7A3FB054662
:103F70000F4A114BFCF745FACDE904010B480068E4
:103F8000FCF798FB0746DDE90423FCF793F982462A
:103F9000FCF7D4FB07B0BDE8F08F00003C00002028
:103FA000340000209A9999999999E93F38000020A6
:103FB000EA2E4454FB2119C0FB211940D1954A70C7
:103FC0002F8BB840400000202F8BB8C02DE9F14F57
:103FD0008AB04FF07E50059002A800F039F902A88F
:103FE00007C806AB07C300210898FCF7C3FB1DD127
:103FF000069C0798FCF75EFB0746454A454BFCF7D5
:1040000000FA82468B460698FCF754FB0746404A66
:10401000414BFCF7F6F952465B46CDE90201FCF74D
:1040200049F90546FCF78AFB814634E0DDE90601E3
:10403000FCF778F807460899FCF774F80646374904
:10404000FCF7C8F8804641460698FCF7BDF80546DF
:1040500041460798FCF7B8F804902C460498FCF702
:1040600029FB06462A4A2B4BFCF7CBF9CDE9020186
:104070002846FCF71FFB0646254A274BFCF7C1F9EB
:10408000CDE90001DDE90223FCF714F98246FCF7D3
:1040900055FB814600BF00210A98FCF76BFB1FD03F
:1040A0000A98FEF7CBFF82462146FCF793F80746B5
:1040B0000A98FEF7B9FA82464946FCF78BF8804623
:1040C0003946FCF781F806460021FCF75DFB01D27A
:1040D000012001E04FF0FF300546FCF773FA059030
:1040E00049464846FCF776F8074621462046FCF745
:1040F00071F880463946FCF715F80646FFF7EAF8EE
:1041000005460599FCF766F80BB0BDE8F08F000096
:1041100047409045A779F23FA779E23FABAAAA3E74
:104120002DE9F04F8FB00646894604A800F090F8BC
:1041300004A807C80BAB07C300210D98FCF71AFBB6
:104140001DD10B9C0C98FCF7B5FA07463C4A3D4B39
:10415000FCF757F9CDE904010B98FCF7ABFA0746D9
:10416000374A394BFCF74DF9CDE90201DDE904236B
:10417000FCF7A0F88246FCF7E1FA054635E0DDE9F8
:104180000B01FBF7CFFF80460D99FBF7CBFF0746EE
:104190002E49FCF71FF8834659460B98FCF714F894
:1041A000824659460C98FCF70FF80690544606983C
:1041B000FCF780FA0746224A224BFCF722F9CDE9A8
:1041C00002015046FCF776FA07461D4A1E4BFCF7E3
:1041D00018F9CDE90001DDE90223FCF76BF8CDE920
:1041E0000401FCF7ABFA054600BF4846FEF71CFA8F
:1041F0000A904846FEF722FF099028460999FBF7E6
:10420000E9FF074620460A99FBF7E4FF8046394656
:10421000FBF788FF079020460999FBF7DBFF07466D
:1042200028460A99FBF7D6FF80463946FBF7CCFFB4
:104230000890DDE90701C6E900010FB0BDE8F08F85
:1042400047409045A779F23FA779E23FABAAAA3E43
:10425000FEB504461F490878FEF7CEFE06461E4806
:1042600001683046FBF7B0FF05461C480168284648
:10427000FBF7B0FF00901A490878FEF7BDFE06462E
:10428000184801683046FBF79FFF0546164801684D
:104290002846FBF79FFF01901448006814498842A4
:1042A00001D100200FE011490878FEF7A5FE06466F
:1042B000104801683046FBF787FF05460E48016845
:1042C0002846FBF787FF02909DE8070084E8070077
:1042D000FEBD00009C000020B4000020A8000020CB
:1042E000A0000020B8000020AC000020A4000020A6
:1042F000C7CFFFFFBC000020B000002010B503486E
:10430000FDF7A2F80446204610BD0000005400400E
:104310002DE9F047FEF794FA054616490968681A30
:10432000FCF759F907461449FBF754FF06461148B4
:10433000056000213046FCF71DFA08D93046FCF72D
:10434000B9F9074600220D4BFCF7E0F900D20C4EFC
:10435000FFF78CFD04460B4801682046FBF734FF4D
:1043600007463146FBF768FF814606480460484629
:10437000BDE8F08744000020BD3786350000E03FEF
:104380006F12833A400000201CB53A480078042898
:1043900003D038480078032800D11CBD00F0B2FBE0
:1043A00035490860FFF7E6FC344908603448007876
:1043B00020B1012803D002284DD11DE04FE02F4845
:1043C0000068FFF703FE2F494860084641682E4801
:1043D000FDF7E0F82B494860084641682B48006823
:1043E000FBF7F2FE044621462948FDF777FA2949F2
:1043F00048600020086032E0204801686846FFF706
:104400008FFE2048DDE9001206C0083841681E48CA
:10441000FDF7C0F81B494860084601681E48FDF7D3
:10442000B9F8184908600846416818480068FBF761
:10443000CBFE044621461648FDF750FA1549486060
:104440001048006880F0004421461448FDF746FA01
:104450001049086003E012A0FEF73EF800BF00BF5D
:104460000C4A11685068054A126800F057F900BFFD
:1044700093E7000071000020480000204C0000205D
:10448000700000206800002060020020540000201E
:10449000D0010020600000206C020020F401002008
:1044A0004D4F543A206E6F20746F727175652063A2
:1044B0006F6E74726F6C2073656C656374656421D4
:1044C00000000000FCF7B4FD4FF4E13000F06CFB9D
:1044D000FDF716FC00F044FB4FF47A70FFF732FC56
:1044E000FDF7A2F8FDF730F8FDF7B0F92E482F4997
:1044F00008600C202E4908604FF080402D4908606C
:104500002D482E4908602E482E4908602E482F4914
:10451000086000202E49087001202E4908702E489E
:104520002E490860002048602B482D490860002073
:1045300048602C482C4908604FF07E504860204865
:104540002A49086020482849C86029482949086044
:10455000400729490860FDF7B1F800210846FDF73A
:1045600003F926A0FDF7B8FF1CE000F005FB274982
:1045700009680844254908600846006824498842BB
:1045800008DB0020214908602248C06880F4005000
:104590002049C8601848006800F03EF8FFF7F4FEB4
:1045A000FFF72CFBE1E70000000040418000002005
:1045B0008C000020880000200000C0408400002003
:1045C0000000A04194000020000048429800002014
:1045D00070000020710000209A99193FF40100201A
:1045E000D0010020CDCCCC3D180200203C020020A0
:1045F0000AD7233C78020020C80000204D6F746F5A
:10460000722072656164792E0D0A0000C4000020DA
:1046100020A107000010014070B5044600F08AFA9E
:104620003449086034480078052860D2DFE800F09B
:1046300003320C4B55003148007810B930484460C3
:1046400001E03048046052E02F4804602F480168C0
:104650002D480068FBF7B8FD054629462C48FDF7B4
:104660003DF92C490860234801682A480068FBF797
:10467000ABFD054629462848FDF730F92149086079
:104680001E48007828B9084600681D494860002087
:1046900008602CE01F480460164801681D48006847
:1046A000FBF792FD054629461B48FDF717F915490A
:1046B00008601248007828B9084600681049486028
:1046C0000020086013E013480460006800F0BCFAA2
:1046D0000B4948600020086009E00B48046000684E
:1046E000FFF710F8064948600020086000BF00BFCF
:1046F00070BD0000500000207100002070000020FC
:1047000060000020540000205C00002048000020D1
:104710003C02002058000020180200202DE9F74F2D
:1047200096B082468B4600215846FCF723F838D0D5
:1047300051465046FBF74EFD594611905846FBF73F
:1047400049FD10901199FBF7EDFC1290FEF7C2FDA8
:104750001390E34801681398FBF76EFD80465846B6
:10476000FBF7A8FFCDE90A015046FBF7A3FFCDE90F
:104770000801DDE90A23FFF76BF9CDE90E0118986E
:10478000FBF798FFCDE90C01DDE90E23FBF792FD65
:10479000CDE91001FBF7D2FF1390FEF76BF81890EC
:1047A00016E0CF4801685046FBF746FD8046189852
:1047B000FBF780FFCB4ACC4BCDE90E01FBF77AFD2E
:1047C000CDE91001FBF7BAFF1390FEF753F81890EC
:1047D0001898FBF76FFFC54AC54BCDE90E01FBF7F3
:1047E00082FE0022C34BCDE91001FBF763FDCDE94A
:1047F0001201FBF746FF07464046FBF75BFFCDE99A
:1048000010011898FBF756FFCDE906013846FBF773
:10481000F8FEB64AB64BCDE90201FBF7F2FDCDE951
:104820000401DDE90623FBF7E6FDCDE90801FBF70E
:1048300085FF0A90FEF702FC0B90FBF73BFFAE4AA8
:10484000AE4BCDE90C01FBF7DCFDCDE90E01DDE956
:104850001023FBF7D6FDCDE91201FBF76FFF814670
:104860004046FBF727FFCDE910013846FBF7C9FEAC
:104870000022A04BCDE90001FBF7BDFD9B4A9C4BFC
:10488000CDE90201FBF7BDFDCDE906011898FBF764
:1048900011FFCDE90401DDE90623FBF7ACFDCDE90D
:1048A0000801FBF74BFF0A90FEF7C8FB0B90FBF7E4
:1048B00001FF914A914BCDE90C01FBF7A2FDCDE937
:1048C0000E01DDE91023FBF79CFDCDE91201FBF79A
:1048D00035FF149049464FF07E50FBF775FC13905E
:1048E0001499FBF771FC1590072F7DD2DFE807F0D4
:1048F000C60424446486A6004FF080411598FBF757
:104900009BFC139048461499FBF70CFC12901399EA
:10491000FBF708FC04464FF080411598FBF78CFC30
:1049200013901499FBF7FEFB05464FF08041159854
:10493000FBF782FC0646A5E04FF080411598FBF797
:104940007BFC49461390FBF7EDFB04464FF080419A
:104950001598FBF771FC139048461499FBF7E2FB9E
:1049600012901399FBF7DEFB05464FF08041159836
:10497000FBF762FC064685E04FF080411598FBF797
:104980005BFC04464FF080411598FBF755FC1390F3
:1049900048461499FBF7C6FB12901399FBF7C2FB2C
:1049A00005464FF080411598FBF746FC139014998B
:1049B000FBF7B8FB064665E04FF080411598FBF722
:1049C0003BFC04464FF080411598FBF735FC494607
:1049D0001390FBF7A7FB05464FF080411598FBF7B6
:1049E0002BFC1390484600E048E01499FBF79AFB33
:1049F00012901399FBF796FB064643E04FF0804177
:104A00001598FBF719FC13901499FBF78BFB0446E0
:104A10004FF080411598FBF70FFC05464FF08041A1
:104A20001598FBF709FC139048461499FBF77AFB9D
:104A300012901399FBF776FB064623E04FF0804176
:104A40001598FBF7F9FB139048461499FBF76AFB9E
:104A500012901399FBF766FB04464FF080411598BE
:104A6000FBF7EAFB05464FF080411598FBF7E4FBA6
:104A700049461390FBF756FB064603E00024002549
:104A8000002600BF00BF1E492046FBF7A3FB129083
:104A9000FBF7C4FD80B2014613904FF08040FDF754
:104AA000AAFB17492846FBF795FB1290FBF7B6FDCA
:104AB00080B2014613904FF08040FDF79EFB1049F5
:104AC0003046FBF787FB1290FBF7A8FD80B201464A
:104AD00013904FF08040FDF792FB19B0BDE8F08FC6
:104AE00080000020F4D64354FB21F93F40AF2D381D
:104AF00052C1F03F0000F03F6B6058E87AB6FB3FD0
:104B00000000B44470B5FFF7B1F9054607480068E6
:104B1000FBF758FD06462946FBF75CFB04460448B4
:104B200001682046FBF750FB70BD00007C000020B0
:104B30007400002070B5FFF7EBFB064631460648CF
:104B4000FCF728FD044605480068FBF73BFD0546D9
:104B50002146FBF73FFB70BD780200207C0000205F
:104B600004484FF0E0214861002088610720086177
:104B7000704700004019010070B5FDF761FE044662
:104B800008480068844203D306480068251A04E0F8
:104B900004480068C0F1FF30051902480460284647
:104BA00070BD0000C000002010B586B00446012191
:104BB00044F20400FCF76EFF4FF40070ADF81400EF
:104BC00003208DF8160018208DF8170005A91C4841
:104BD000FCF776FA4FF48060ADF8140004208DF8ED
:104BE000170005A91648FCF76BFA25208DF8000080
:104BF00003208DF801008DF8020001208DF80300DC
:104C00006846FCF7EBFD01940020ADF80800ADF814
:104C10000A00ADF80C00ADF810000C20ADF80E0045
:104C200001A90848FDF7E6FB012240F2255105489D
:104C3000FDF7BAFB01210348FDF780FB06B010BD6C
:104C400000080140003801402DE9F0470446FDF717
:104C5000F7FD05461C490968681AFBF7BCFC80464D
:104C60001A49FBF7B7FA0646174805600021304697
:104C7000FBF780FD05D94FF07C513046FBF784FDF2
:104C800000D2134E31462046FBF7A4FA8146114864
:104C900001684846FBF746FA8046FDF7EBFD0D49F3
:104CA00008600D4804600D4807680D480168094810
:104CB0000068FDF7EFFC8046424600213846FFF7CA
:104CC0002DFD3846BDE8F08790000020BD378635C1
:104CD0006F12833A4800002050000020840000201A
:104CE0008C000020000000004F0000009E0000002B
:104CF000ED0000003C0100008B010000D901000024
:104D00002802000077020000C60200001503000020
:104D100063030000B2030000000400004F04000021
:104D20009D040000EC0400003A0500008805000026
:104D3000D60500002406000072060000C006000030
:104D40000E0700005B070000A9070000F60700003F
:104D50004308000090080000DD0800002A09000058
:104D600077090000C30900000F0A00005C0A000078
:104D7000A80A0000F40A00003F0B00008B0B0000A3
:104D8000D60B0000210C00006C0C0000B70C0000DA
:104D9000010D00004C0D0000960D0000E00D00001C
:104DA000290E0000730E0000BC0E0000050F00006D
:104DB0004E0F0000960F0000DF0F000027100000CC
:104DC0006E100000B6100000FD100000441100003D
:104DD0008B110000D1110000171200005D120000BD
:104DE000A2120000E81200002D1300007113000051
:104DF000B6130000F91300003D14000081140000F8
:104E0000C414000006150000491500008B150000B1
:104E1000CC1500000E1600004F1600008F16000083
:104E2000CF1600000F1700004F1700008E1700006C
:104E3000CD1700000B18000049180000871800006B
:104E4000C4180000011900003D1900007919000084
:104E5000B5190000F01900002B1A0000661A0000B6
:104E60009F1A0000D91A0000121B00004B1B000003
:104E7000831B0000BB1B0000F21B0000291C00006C
:104E8000601C0000961C0000CB1C0000001D0000F0
:104E9000351D0000691D00009D1D0000D01D000093
:104EA000031E0000351E0000671E0000981E000053
:104EB000C91E0000FA1E0000291F0000591F000033
:104EC000881F0000B61F0000E41F00001120000032
:104ED0003E2000006A20000096200000C120000053
:104EE000EC20000016210000402100006921000094
:104EF00092210000BA210000E121000008220000F8
:104F00002F220000552200007A2200009F2200007C
:104F1000C3220000E72200000A2300002D23000026
:104F20004F2300007023000091230000B2230000F3
:104F3000D1230000F12300000F2400002D240000E5
:104F40004B2400006824000084240000A0240000FA
:104F5000BB240000D5240000EF2400000925000038
:104F6000222500003A250000522500006925000096
:104F70007F25000095250000AA250000BF25000020
:104F8000D3250000E6250000F92500000B260000CF
:104F90001D2600002E2600003E2600004E260000A2
:104FA0005D2600006C2600007A260000872600009F
:104FB00094260000A0260000AB260000B6260000C4
:104FC000C0260000CA260000D3260000DB26000011
:104FD000E3260000EA260000F1260000F726000084
:104FE000FC2600000127000005270000082700001C
:104FF0000B2700000D2700000F27000010270000DE
:1050000010270000000000004FBB610567ACDD3FCA
:10501000182D4454FB21E93F9BF681D20B73EF3FDF
:10502000182D4454FB21F93FE2652F227F2B7A3C57
:10503000075C143326A6813CBDCBF07A8807703C10
:10504000075C143326A6913CC4EB98999999C9BF83
:10505000711623FEC671BCBF6D9A74AFF2B0B3BFB8
:105060009AFDDE522DDEADBF2F6C6A2C44B4A2BF78
:105070000D5555555555D53FFF8300922449C23FE4
:105080006E204CC5CD45B73F513DD0A0660DB13F18
:10509000EB0D76244B7BA93F11DA22E33AAD903F2A
:1050A0000000000000000000DDDDDDDDDCBBBBDD5D
:1050B000DDDDDDDDDDDDDDDD9888888888888888B8
:1050C00077777777778888888555555666666666D8
:1050D00066666666666888888333333222222222B7
:1050E000222222222228888D085100080000002058
:1050F000D0000000FC250008D8510008D000002096
:10510000B80500000C26000800000000010203049E
:105110000102030406070809020406080000000053
:10512000000000000000000000000000000000007F
:10513000000000000000000000000000000000006F
:10514000000000000000000000000000000000005F
:10515000000000000000000000000000000000004F
:10516000000000000000000000000000000000003F
:10517000000000000000000000000000000000002F
:10518000000000000000000000000000000000001F
:10519000000000000000000000000000000000000F
:1051A00000000000000000000000000000000000FF
:1051B00000000000000000000000000000000000EF
:1051C00000000000000000000000000000000000DF
:0851D0000000000000000000D7
:04000005080000ED02
:00000001FF
